:100000000C9454010C9485010C9485010C94850189
:100010000C9485010C9485010C9485010C94850148
:100020000C9485010C9485010C9485010C94850138
:100030000C9485010C9485010C9485010C94850128
:100040000C9485010C9485010C9485010C94850118
:100050000C9485010C9485010C9485010C94561226
:100060000C9485010C9420120C94F6110C948501CB
:100070000C9485010C9485010C9485010C948501E8
:100080000C9485010C9485010C9485010C948501D8
:100090000C9485010C9485010C9485010C94A0129C
:1000A0000C9485010C9485010C9485010C948501B8
:1000B0000C9485010C9485010C9485010C948501A8
:1000C0000C9485010C9485010C9485010C94850198
:1000D0000C9485010C9485010C9485010C94850188
:1000E0000C9485010C9424020C9488020C94410415
:1000F0000C94D5030C94DE030C94B0030C94E20230
:100100000C94DF030C9479020C9485070C9411086D
:100110000C94B9030C94D1030C944C020C94C303BB
:100120000C94A8070C94BD030C9495070C948607B7
:100130000C942F030C94AA020C9425020C94A40393
:100140000C94A8030C949E030C94DC070C94B3034A
:100150000C94AF070C94AC030C9410040C94810421
:100160000C946A0B0C94C7030C94E3030C94CB031C
:100170000C949C020C9410080C94D9030C94461B0C
:100180000C94C41300002200250028002B002E0030
:100190003100340002010000050108010B010000DC
:1001A00020002300260029002C002F00320000012F
:1001B000000003010601090100000A0B02090C0DF1
:1001C0000E0807030401000000000000000000000A
:1001D000000000000000000000000000000000001F
:1001E00000000000121110000000000000000000DC
:1001F00000000000000000000000000000000000FF
:100200002100240027002A002D00300033000101C6
:100210000000040107010A01010210202008081053
:100220002040102040800201020108040201010266
:10023000040810204080804020100804020180043F
:10024000020180402010080402010804020101029A
:100250000408102040800102040810204080050599
:100260000505070508080808020202020A0A08082C
:10027000040404040101010101010101030303035A
:1002800003030303040707070C0C0C0C0C0C0C0CE9
:100290000202020206060606060606060B0B0B0BFA
:1002A0000B0B0B0BC413461B11241FBECFEFD1E267
:1002B000DEBFCDBF00E00CBF26E0A6E5B4E001C084
:1002C0001D92AF3AB207E1F714E0A0E0B2E0EAEB2A
:1002D000FBE300E00BBF02C007900D92A635B1070B
:1002E000D9F711E0C3E5D1E000E006C0219701098C
:1002F000802FFE010E94AD1BC235D10780E00807A8
:10030000A9F70E949F140C94CB1D0C94000096E05A
:10031000899FD0011124AC5DB94F90967C936E9368
:100320005F9791E091969C939197E0919106F0915F
:10033000920690919006992339F0309751F08111EF
:1003400008C0809140061994309719F05C968C9102
:10035000FACF0895CF92DF92EF92FF920F931F93FF
:1003600096E0899FF0011124EC5DF94F11A2278DD1
:1003700030A12130310551F178F02230310509F4F6
:1003800051C02330310509F452C01F910F91FF90E5
:10039000EF90DF90CF9008956623B9F361E070E0AD
:1003A0000E9487012FB7F89480915F0590916005B6
:1003B000A0916105B09162052FBF80937C06909358
:1003C0007D06A0937E06B0937F06DFCF9FB7F8949B
:1003D000C0905F05D0906005E0906105F0906205E7
:1003E0009FBF00917C0610917D0620917E06309182
:1003F0007F06C01AD10AE20AF30A00918E06109114
:100400008F0630E020E00C151D052E053F0550F449
:1004100062E070E01F910F91FF90EF90DF90CF901E
:100420000C9487016111B1CF63E070E0F3CF70E00D
:1004300060E0F0CF91E090933B0580935D051092D2
:100440003C0510925E05089508950895FC012481ED
:1004500035816217730748F480819181009729F0F4
:10046000860F971FFC018081089580E00895DC01CC
:10047000ED91FC910190F081E02D1994DB0114962F
:100480004D915C9115976D917C91DC01ED91FC9102
:100490000280F381E02D1994AF92BF92CF92DF9248
:1004A000EF92FF920F931F93CF93DF936C017B0129
:1004B0008B01040F151FEB015E01AE18BF08C017BA
:1004C000D10759F06991D601ED91FC910190F0812D
:1004D000E02DC6011995892B79F7C501DF91CF91E0
:1004E0001F910F91FF90EF90DF90CF90BF90AF9052
:1004F0000895FC01538D448D252F30E0842F90E02A
:10050000821B930B541710F0CF960895019708950E
:10051000FC01918D828D981761F0A28DAE0FBF2FD7
:10052000B11D5D968C91928D9F5F9F73928F90E02D
:1005300008958FEF9FEF0895FC01918D828D98179C
:1005400031F0828DE80FF11D858D90E008958FEFD9
:100550009FEF0895FC01918D228D892F90E0805CA2
:100560009F4F821B91098F739927089583E695E029
:100570000E94AA0221E0892B09F420E0822F08952D
:10058000FC01A48DA80FB92FB11DA35ABF4F2C9108
:10059000848D90E001968F739927848FA689B789FF
:1005A0002C93A089B1898C91837080648C93938DF6
:1005B000848D981306C00288F389E02D80818F7D99
:1005C00080830895EF92FF920F931F93CF93DF9351
:1005D000EC0181E0888F9B8D8C8D98131AC0E8897F
:1005E000F989808185FF15C09FB7F894EE89FF894E
:1005F0006083E889F98980818370806480839FBFEC
:1006000081E090E0DF91CF911F910F91FF90EF90EB
:100610000895F62E0B8D10E00F5F1F4F0F731127FB
:10062000E02E8C8D8E110CC00FB607FCFACFE88936
:10063000F989808185FFF5CFCE010E94C002F1CFFC
:10064000EB8DEC0FFD2FF11DE35AFF4FF0829FB7AA
:10065000F8940B8FEA89FB8980818062CFCFCF939A
:10066000DF93EC01888D8823B9F0AA89BB89E889DA
:10067000F9898C9185FD03C0808186FD0DC00FB680
:1006800007FCF7CF8C9185FFF2CF808185FFEDCFFE
:10069000CE010E94C002E9CFDF91CF91089580E0A2
:1006A00090E0892B29F00E94B60281110E9400007F
:1006B00080E090E0892B49F080E090E0892B29F0E0
:1006C0000E94000081110E94000080E090E0892BD0
:1006D00049F080E090E0892B29F00E940000811110
:1006E0000E94000080E090E0892B49F080E090E0DB
:1006F000892B29F00E94000081110C9400000895BC
:100700008150823108F05AC0E82FF0E08827E45782
:10071000FC4F8F4F0C94AD1BAC03B0039E03A4039E
:10072000A803DE03B303B903BD03C303C703CB03AD
:10073000D103D503DE03D903DF03E30380918000F7
:100740008F77809380000895809180008F7DF9CF0E
:1007500080918000877FF5CF84B58F7784BD089521
:1007600084B58F7DFBCF8091B0008F778093B000F0
:1007700008958091B0008F7DF9CF809190008F77A0
:10078000809390000895809190008F7DF9CF8091A3
:100790009000877FF5CF8091A0008F778093A00095
:1007A00008958091A0008F7DF9CF8091A000877F70
:1007B000F5CF809120018F7780932001089580915B
:1007C00020018F7DF9CF80912001877FF5CFCF93D6
:1007D000DF93282F30E0F901E854FE4F8491F901AE
:1007E000E85EFD4FD491F901E25AFD4FC491CC234C
:1007F000A1F081110E948003EC2FF0E0EE0FFF1FAB
:10080000E256FE4FA591B491EC91ED2381E090E08A
:1008100009F480E0DF91CF91089580E090E0FACF75
:10082000862F0C94E7031F93CF93DF93282F30E09C
:10083000F901E854FE4F8491F901E85EFD4FD4912F
:10084000F901E25AFD4FC491CC23A9F0162F811172
:100850000E948003EC2FF0E0EE0FFF1FEC57FE4FDD
:10086000A591B4918FB7F894EC91111108C0D0956F
:10087000DE23DC938FBFDF91CF911F910895DE2B94
:10088000F8CF862F642F0C941304CF93DF9390E05E
:10089000FC01E85EFD4F2491825A9D4FFC0184913A
:1008A0008823C9F090E0880F991FFC01E250FE4FA9
:1008B000A591B491FC01EC57FE4FC591D491611103
:1008C0000DC09FB7F8948C91209582238C938881DA
:1008D000282328839FBFDF91CF910895623051F480
:1008E0009FB7F8943C91822F809583238C93E88165
:1008F0002E2BEFCF8FB7F894EC912E2B2C938FBF2C
:10090000EACF862F642F0C9445046F927F928F92CA
:100910009F92AF92BF92CF92DF92EF92FF920F938E
:100920001F93CF93DF9381E0809390068FB7F89465
:1009300040915F055091600560916105709162057D
:100940008FBF8091800690918106A0918206B09120
:100950008306481B590B6A0B7B0B80918C06909188
:100960008D06B0E0A0E084179507A607B70708F04A
:100970001DC1C0E080918A06C81760F4E091860628
:10098000F0918706EC0FF11D62E080810E94450422
:10099000CF5FF0CF712C812C912C540183948091E6
:1009A0008B06781608F05FC0072D10E0E0918806EE
:1009B000F0918906E00FF11F61E080810E944504FB
:1009C000E0918806F0918906E00FF11F60E08081D8
:1009D0000E941304D501C401072C04C0880F991F7D
:1009E000AA1FBB1F0A94D2F76C017C01E094F0941B
:1009F000612C80918A066816F8F4C62DD0E0E0914B
:100A00008606F0918706EC0FFD1F80810E94E703A8
:100A10002496CC0FDD1FCC5DD94F892B41F4888102
:100A200099818C299D29998388836394E2CF888159
:100A300099818E219F21F7CFE0918806F091890658
:100A4000E00FF11F61E080810E941304809188060D
:100A500090918906080F191F60E0F80180810E94BB
:100A6000450473949CCFC4E2D6E0FE018FEF9FEF64
:100A7000278D30A1232B21F4148E968F858F11A200
:100A8000369626E0E036F20799F7F12C96E0D92E5B
:100A900080918A06F81608F050C0E12C0F2D10E066
:100AA000000F111F045D194F20918B06E21608F00C
:100AB00042C0F801608171810E2C02C07695679565
:100AC0000A94E2F7F29E900111242E0D311DE4E20A
:100AD000F6E080E0458D568D2417350709F46AC08D
:100AE0008F5F36968A30B1F760FF23C0E4E2F6E00C
:100AF00090E080E0448D411117C0E0918406F091B0
:100B00008506E20FF31F4081D89EF001D99EF00DBB
:100B10001124EC5DF94F448F368F258F10A2178E6C
:100B200061E00E94AA0105C0019636968A309105BF
:100B300009F7E394B9CFF394ABCF80E099A1911179
:100B4000892F2696F6E0C036DF07C1F79FB7F894E5
:100B500040915F055091600560916105709162055B
:100B60009FBF4093800650938106609382067093E6
:100B700083068823D9F0809145068823B9F08091B7
:100B8000430690914406019789F480914006DF91D5
:100B9000CF911F910F91FF90EF90DF90CF90BF907A
:100BA000AF909F908F907F906F90089510929006D5
:100BB00080E0EDCF6170B5CF0E9485048823E1F31A
:100BC00008953FB7F89480919B0490919C04A09164
:100BD0009D04B0919E0426B5A89B05C02F3F19F037
:100BE0000196A11DB11D3FBFBA2FA92F982F8827AD
:100BF000BC01CD01620F711D811D911D42E0660F88
:100C0000771F881F991F4A95D1F708958F929F9259
:100C1000AF92BF92CF92DF92EF92FF924B015C01B5
:100C20000E94E1056B017C010E94E1056C197D09C0
:100C30008E099F09683E734081059105A8F321E064
:100C4000821A9108A108B10888EEC80E83E0D81E68
:100C5000E11CF11C81149104A104B10429F7FF9057
:100C6000EF90DF90CF90BF90AF909F908F900895BE
:100C700020917704260F3327331F21323105ECF4FE
:100C800020913505FC0190E080E0243069F082E09D
:100C90000895A09177042191AC01495A5B4FA40FAC
:100CA000B52FB11D2C930196861798F38091770488
:100CB000680F6093770480E0089581E008951092B2
:100CC000350581E08093340510920F0561E084E1E1
:100CD0000E94130461E085E10E941304E9EBF0E057
:100CE00080818E7F808380818D7F808388E4809364
:100CF000B80085E48093BC000895CF93DF9391E022
:100D0000909356048823B9F0C091B800D091BA00EE
:100D10008091BC008A7B8093BC0060E084E10E94EB
:100D2000130460E085E10E9413040E945F06D093E3
:100D3000BA00C093B800DF91CF910895CF92DF92AF
:100D4000EF92FF920F931F93CF93DF93D0915E05A5
:100D500081E0D13208F09CC0C0915D050E94E105A0
:100D60006B017C018091350581116CC082E080931C
:100D7000350581E0809334058FEF80933305109221
:100D80003205D0933105ADE3B5E0E1E1F5E080E077
:100D9000D8138DC01092100580911005CC0FC82B70
:100DA000C093100580910F05813009F084C0109226
:100DB0000F050E94E1056B017C0180911005809375
:100DC000BB008091370590913805A0913905B0910D
:100DD0003A05892B8A2B8B2BA1F00E94E10500910B
:100DE0003705109138052091390530913A056C1975
:100DF0007D098E099F09061717072807390708F488
:100E000042C08091BC0083FDD8CF85EC8093BC00AC
:100E10000E94E1056B017C0180913505823009F467
:100E20004CC0809133058F3F09F469C08091330530
:100E3000803209F466C080913305803309F463C0C1
:100E400084E026C08091370590913805A09139053E
:100E5000B0913A05892B8A2B8B2B09F483CF0E9402
:100E6000E105009137051091380520913905309141
:100E70003A056C197D098E099F090617170728077F
:100E8000390708F06FCF809136050E947D0685E016
:100E900010923C0510925E0510923B05DF91CF91B8
:100EA0001F910F91FF90EF90DF90CF9008959D914B
:100EB00091938F5F6DCF85EEA9CF8091370590918B
:100EC0003805A0913905B0913A05892B8A2B8B2BD7
:100ED00009F4A2CF0E94E105009137051091380571
:100EE0002091390530913A056C197D098E099F09C9
:100EF000061717072807390708F08ECFC4CF80E000
:100F0000C7CF82E0C5CF83E0C3CF0895E091EE0460
:100F10008091ED04E81730F4F0E0E151FB4F80815F
:100F200090E008958FEF9FEF08959091EE048091E7
:100F3000ED042FEF3FEF981748F4E92FF0E0E1516F
:100F4000FB4F208130E09F5F9093EE04C90108952C
:100F50008091ED049091EE04891B990B0895CF9236
:100F6000DF92EF92FF920F931F93CF93DF937C0159
:100F7000CB018A0120913B05222389F0EB016B0113
:100F8000C40ED51ECC15DD0569F06991D701ED9130
:100F9000FC910190F081E02DC7011995F3CF642FEA
:100FA0000E943806C801DF91CF911F910F91FF90E9
:100FB000EF90DF90CF900895CF93DF931F92CDB73E
:100FC000DEB7698320913B052223F9F020915E056D
:100FD000203258F021E030E0FC013383228390E09E
:100FE00080E00F90DF91CF91089580913C05E82F2C
:100FF000F0E0E35CFA4F998190838F5F80933C052A
:1010000080935E0581E090E0ECCF61E0CE01019637
:101010000E943806F7CF682F80E096E00C94DC073A
:10102000089590E080E008951F93CF93DF93182FE9
:10103000EB016AE070E080E090E00E94060680E547
:101040000E941A0260E080E096E00E94DC07612FB7
:1010500080E096E00E94DC07CE010E940B08DF9141
:10106000CF911F910C949E068091E3049091E4042B
:1010700061E0019709F060E08BE00E941304809129
:10108000E5049091E60461E0019709F060E08AE0F0
:101090000E9413048091E7049091E80461E00197B5
:1010A00009F060E089E00E9413048091E9049091C6
:1010B000EA0461E0019709F060E088E00C94130411
:1010C0008EBD00000DB407FEFDCF8EB50895CF9202
:1010D000DF92EF92FF920F931F930E94E1056B0145
:1010E0007C0180913505811163C081E080933505D5
:1010F000809334059FEF9093330510923205109240
:1011000031058093100580911005806A8093100549
:1011100080910F05813009F07CC010920F050E946C
:10112000E1056B017C01809110058093BB008091EB
:10113000370590913805A0913905B0913A05892B72
:101140008A2B8B2BA1F00E94E105009137051091AD
:1011500038052091390530913A056C197D098E09C1
:101160009F09061717072807390708F442C080911E
:10117000BC0083FDD8CF85EC8093BC000E94E105C4
:101180006B017C0180913505813009F444C0809168
:101190003205811162C080913205A1E1B5E0EFEE28
:1011A000F4E090E0981751F12D9121939F5FFACFD1
:1011B0008091370590913805A0913905B0913A0595
:1011C000892B8A2B8B2B09F48CCF0E94E10500918F
:1011D0003705109138052091390530913A056C1981
:1011E0007D098E099F09061717072807390708F098
:1011F00078CF809136050E947D0680E01092EE0443
:101200008093ED041F910F91FF90EF90DF90CF90AE
:10121000089585EEB1CF8091370590913805A09162
:101220003905B0913A05892B8A2B8B2B09F4AACF6B
:101230000E94E1050091370510913805209139058C
:1012400030913A056C197D098E099F090617170719
:101250002807390708F096CFCCCF81E09ECFCF93F7
:10126000C82F80E50E941A0260E080E096E00E94AC
:10127000DC076C2F80E096E00E94DC070E949E064F
:101280000E94670880E096E0CF910C9495070F9339
:101290001F93CF93DF930BEA14E0CDE7D0E0CE01AC
:1012A0000E942F09F801819391938F012196C438F0
:1012B000D105A9F7DF91CF911F910F9108950F9359
:1012C0001F93CF93DF9309EB14E0C4E6D0E0CE0187
:1012D0000E942F09F801819391938F012196CB36BB
:1012E000D105A9F7DF91CF911F910F9108950F9329
:1012F0001F93CF93DF9307EC14E0CBE4D0E0CE0153
:101300000E942F09F801819391938F012196C23594
:10131000D105A9F7DF91CF911F910F9108950F93F8
:101320001F93CF93DF9305ED14E0C2E3D0E0CE012D
:101330000E942F09F801819391938F012196C9335F
:10134000D105A9F7DF91CF911F910F910895CF9308
:10135000DF9380E50E941A0290E080E00E940B0873
:101360008AE090E00E940B080E949E060E94670897
:1013700080E096E00E949507C3EED4E099838883CD
:1013800080E50E941A0290E080E00E940B088BE04A
:1013900090E00E940B080E949E060E94670880E071
:1013A00096E00E9495079B838A8380E50E941A023B
:1013B00090E080E00E940B088CE090E00E940B0817
:1013C0000E949E060E94670880E096E00E949507B2
:1013D0009D838C8380E50E941A0290E080E00E9449
:1013E0000B088DE090E00E940B080E949E060E9470
:1013F000670880E096E00E9495079F838E83DF91C7
:10140000CF91089580E50E941A0290E080E00E944A
:101410000B0890E080E00E940B080E949E060E944C
:10142000670880E096E00E94950799270895CF937A
:10143000DF93EC0160E08E810E94130461E08E81F5
:101440000E94130460E08E810E9413048BE891E0F7
:101450000197F1F7DF91CF910895CF92DF92EF924C
:10146000FF920F931F93CF93DF936C017C0187E072
:10147000E80EF11CD0E0C0E0062F10E0B8010C2E01
:1014800002C0759567950A94E2F76170F701819142
:101490007F010E9413042196C430D10579F7C6015B
:1014A000DF91CF911F910F91FF90EF90DF90CF9040
:1014B0000C94170ACF92DF92EF92FF920F931F9333
:1014C000CF93DF93EC01F62E642F8C810E941304DE
:1014D0008D818F3F19F060E00E9413040F2D10E002
:1014E0008F8584FF25C06E0187E0C80ED11CF12CCA
:1014F000E12CB8010E2C02C0759567950A94E2F7AD
:101500006170F60181916F010E941304FFEFEF1AE1
:10151000FF0A88E0E816F10461F7CE01DF91CF9170
:101520001F910F91FF90EF90DF90CF900C94170ACE
:10153000B80184E0759567958A95E1F7CE010E9420
:101540002D0A6F2DCE01DF91CF911F910F91FF904A
:10155000EF90DF90CF900C942D0A40E0682F83E944
:1015600096E00C945A0A81E00E94AD0A8BE39FE159
:101570000197F1F70895CF93DF93813029F090918F
:10158000A20698609093A2068093A6061092A706E2
:1015900080E48093A80680E18093A90680E580938B
:1015A000AA0661E0809197060E9445048091980602
:1015B0008F3F19F061E00E94450461E08091990637
:1015C0000E944504C3E9D6E09E012359364080912C
:1015D000A20684FD0BC084E090E02196281739070D
:1015E00044F461E08E810E944504EECF88E090E0F3
:1015F000F4CF8BE39DE00197F1F760E080919706CF
:101600000E94130460E0809199060E941304809167
:1016100098068F3F19F060E00E9413048091A206A3
:1016200084FD34C063E083E996E00E942D0ACBE498
:10163000D6E4CE010197F1F763E083E996E00E94DA
:101640002D0A2197F1F763E083E996E00E942D0AC5
:1016500083E592E00197F1F762E083E996E00E946A
:101660002D0A8091A20680620E94AD0A84E08093D8
:10167000A3068CE00E94AD0A0E94B30A82E0809328
:10168000A40686E0DF91CF910C94AD0A80620E949F
:10169000AD0A8BE496E40197F1F78091A20680628F
:1016A0000E94AD0A83E592E00197F1F78091A206CE
:1016B00080620E94AD0AD5CF9091A606891710F0DE
:1016C0008FEF890FE82FF0E0ED56F94F848980689D
:1016D0000C94AD0A41E00E945A0A81E090E008951E
:1016E000FB0101900020E9F73197AF01461B570B32
:1016F000DC01ED91FC910280F381E02D19944F9271
:101700005F926F927F928F929F92AF92BF92CF9291
:10171000DF92EF92FF920F931F93CF93DF93CDB79A
:10172000DEB7A1970FB6F894DEBF0FBECDBF8C0118
:101730006B01770FEE08FF08F7FE44C06DE20E94D0
:1017400037025C0122273327A9012C193D094E09D4
:101750005F0919A2CE0181967C019AE0492E512C95
:10176000612C712CCA01B901A30192010E948B1B4B
:10177000605DF70162937F01211531054105510537
:1017800089F790E080E0309721F0BF01C8010E9406
:10179000700B8A0D9B1DA1960FB6F894DEBF0FBE8D
:1017A000CDBFDF91CF911F910F91FF90EF90DF9010
:1017B000CF90BF90AF909F908F907F906F905F90F1
:1017C0004F900895A701960119A2CE0181967C0140
:1017D0008AE0882E912CA12CB12CCA01B901A50157
:1017E00094010E948B1B605DF70162937F012115BC
:1017F00031054105510589F790E080E0309759F2B5
:10180000BF01C8010E94700BC6CF63E572E083E69A
:1018100095E00C94700BCF93DF93BC0183E695E0C9
:101820000E947F0BEC010E94050C8C0F9D1FDF9125
:10183000CF910895CF93DF93682F83E695E00E94C0
:101840003702EC010E94050C8C0F9D1FDF91CF9198
:101850000895CF93DF93BC0183E695E00E94700B5F
:10186000EC010E94050C8C0F9D1FDF91CF91089514
:101870000C94700BCF93DF9383E00E945C0B66E5C2
:1018800072E083E996E00E94380C0E94DC05C82FC4
:10189000682F83E996E00E9437028FEC8C0F84302A
:1018A000C0F40C2E000CDD0BE097D093AA04C0937B
:1018B000A90480E50E941A0290E080E00E940B08D3
:1018C00090E080E00E940B08CE010E940B080E946D
:1018D0009E066AE070E080E090E00E9406060E94AA
:1018E000B30A80E00E945C0B63E672E083E996E055
:1018F0000E94380C6091A9047091AA046F3F710591
:1019000041F46BEA73E083E996E0DF91CF910C94A8
:10191000380C83E996E0DF91CF910C947F0B83E044
:101920000E945C0B6AE672E083E996E00E94380C44
:101930000E94DC058093A804833269F583E00E944D
:101940005C0B67E772E083E996E00E94380C81E067
:1019500090E09093A5048093A40468EC70E080E08C
:1019600090E00E9406060E94B30A80E00E945C0B91
:1019700063E672E083E996E00E94380C6091A90466
:101980007091AA046F3F710501F56BEA73E083E97A
:1019900096E00C94380C8091A804833281F00E9468
:1019A000DC058093A8048332B1F383E00E945C0BD2
:1019B0006AE672E083E996E00E94380CECCF83E09F
:1019C0000E945C0B68E772E0BECF83E996E00C945E
:1019D0007F0BFC0180819181009711F00C94511CC8
:1019E00008950F931F93CF93DF93EC018881998122
:1019F000009759F02A813B812617370730F081E0A4
:101A0000DF91CF911F910F9108958B016F5F7F4FF1
:101A10000E94DA1C009759F0998388831B830A83FC
:101A20002C813D81232B59F7FC011082E8CF80E007
:101A3000E7CF0F931F93CF93DF93EC010C811D81B0
:101A40000F5F1F4FB8010E94F10C28813981882354
:101A500081F08C819D8169EF72E0820F931F0E945B
:101A6000C41D1D830C83CE01DF91CF911F910F9177
:101A700008952115310519F0C9010E94511C1982E0
:101A800018821D821C821B821A82EDCFEF92FF9278
:101A90000F931F93CF93DF93FB01E080F180E1145C
:101AA000F10441F480E0DF91CF911F910F91FF90FD
:101AB000EF9008950481158101151105B1F0EC0135
:101AC0008C819D81080F191FB801CE010E94F10C75
:101AD000882341F3288139818C819D81B701820F50
:101AE000931F0E94C41D1D830C8381E0DCCFEF9205
:101AF000FF920F931F93CF93DF93EC017B018A0139
:101B0000BA010E94F10C28813981811114C021157C
:101B1000310519F0C9010E94511C198218821D82D9
:101B20001C821B821A82CE01DF91CF911F910F91EF
:101B3000FF90EF9008951D830C83B701C9010E94A7
:101B4000C41DF1CFFC011182108213821282158212
:101B5000148250E040E065E572E00C94770DFB01E3
:101B600001900020E9F73197AF01461B570B0C9409
:101B7000770D0F931F93CF93DF93CDB7DEB76297A7
:101B80000FB6F894DEBF0FBECDBF8C01CB01F801BC
:101B90001182108213821282158214824AE0BE01E1
:101BA0006F5F7F4F0E94561BBE016F5F7F4FC80162
:101BB0000E94AF0D62960FB6F894DEBF0FBECDBF88
:101BC000DF91CF911F910F910895CF93DF931F92D3
:101BD0001F92CDB7DEB7FC011182108213821282F0
:101BE0001582148269831A82BE016F5F7F4F0E9443
:101BF000AF0D0F900F90DF91CF910895FB01DC01A5
:101C000011961C921E9213961C921E921297159674
:101C10001C921E9214978617970749F06081718174
:101C20006115710521F0448155810C94770D08955B
:101C3000CF92DF92EF92FF920F931F93CF93DF9398
:101C4000CDB7DEB764970FB6F894DEBF0FBECDBF39
:101C500083E00E945C0B68E872E083E996E00E94F2
:101C6000380C68EC70E080E090E00E9406060E946C
:101C7000B30A80E00E945C0B67E972E083E996E0BA
:101C80000E94380C8091A9049091AA04813091059A
:101C900009F0D0C08091E3049091E404019709F029
:101CA000C6C08091D5049091D60460EA72E0009796
:101CB00021F0019731F463EA72E083E996E00E9433
:101CC000380C81E00E945C0B69EA72E083E996E0DF
:101CD0000E94380C8091A9049091AA04813091054A
:101CE00009F037C18091E5049091E604019709F06D
:101CF0002DC18091C7049091C80460EA72E00097FA
:101D000021F0019731F463EA72E083E996E00E94E2
:101D1000380C82E00E945C0B62EB72E083E996E093
:101D20000E94380C8091A9049091AA0481309105F9
:101D300009F09EC18091E7049091E804019709F0B1
:101D400094C18091B9049091BA0460EA72E000975E
:101D500021F0019731F463EA72E083E996E00E9492
:101D6000380C83E00E945C0B6BEB72E083E996E039
:101D70000E94380C8091A9049091AA0481309105A9
:101D800009F009C28091E9049091EA04019709F0F1
:101D9000FBC18091AB049091AC0460EA72E00097C3
:101DA00009F4F4C163EA72E0019709F4EFC10E94FB
:101DB000DC058093A8048A3209F079C20E94B30A34
:101DC00083E00E945C0B64EC72E083E996E00E9481
:101DD000380C68EC70E080E090E00E9406060E94FB
:101DE000B30A80E00E945C0B63E672E083E996E050
:101DF0000E94380C6091A9047091AA046F3F71058C
:101E000009F05FC26BEA73E083E996E00E94380C48
:101E100064960FB6F894DEBF0FBECDBFDF91CF91B1
:101E20001F910F91FF90EF90DF90CF9008956BEA94
:101E300073E043CF82309105C9F48091E30490911F
:101E4000E4040197A1F7E090D704F090D80410E0E3
:101E500000E00E151F050CF034CF67EA72E083E94D
:101E600096E00E94380C0F5F1F4FF3CF833091052F
:101E7000D1F48091E3049091E4040197C1F660915C
:101E8000D9047091DA04CE0101960E94B90DBE0109
:101E90006F5F7F4F83E996E00E943E02CE0101967C
:101EA0000E94E90C0ECF049709F00BCF8091E30458
:101EB0009091E404019709F0BACFABEDB4E090E063
:101EC00080E010E000E02D913D912130310569F472
:101ED000F801EE0FFF1F21E030E02C0F3D1FE20F55
:101EE000F31F918380830F5F1F4F0196843091050C
:101EF00051F7CE0101966C01F12CE12CE016F106B0
:101F000009F4DFCEF601619171916F01CE010F9658
:101F10000E94B90DBE01615F7F4FCE0109960E94FC
:101F2000FE0DCE0109960E94190DBC0183E996E0D1
:101F30000E943E02CE0109960E94E90CCE010F9646
:101F40000E94E90CFFEFEF1AFF0AD8CF6BEA73E0AB
:101F5000DCCE82309105C9F48091E5049091E604CD
:101F60000197A1F7E090C904F090CA0410E000E0E6
:101F70000E151F050CF0CDCE67EA72E083E996E0FE
:101F80000E94380C0F5F1F4FF3CF83309105D1F4BF
:101F90008091E5049091E6040197C1F66091CB042D
:101FA0007091CC04CE0101960E94B90DBE016F5F05
:101FB0007F4F83E996E00E943E02CE0101960E9487
:101FC000E90CA7CE049709F0A4CE8091E504909186
:101FD000E604019709F0BACFADECB4E090E080E000
:101FE00010E000E02D913D912130310569F4F801B8
:101FF000EE0FFF1F21E030E02C0F3D1FE20FF31F1B
:10200000918380830F5F1F4F01968430910551F7B4
:10201000CE0101966C01F12CE12CE016F10609F4D9
:1020200078CEF601619171916F01CE010F960E94F9
:10203000B90DBE01615F7F4FCE0109960E94FE0D72
:10204000CE0109960E94190DBC0183E996E00E9419
:102050003E02CE0109960E94E90CCE010F960E9425
:10206000E90CFFEFEF1AFF0AD8CF6BEA73E075CEE9
:1020700082309105C9F48091E7049091E8040197BA
:10208000A1F7E090BB04F090BC0410E000E00E1556
:102090001F050CF066CE67EA72E083E996E00E94C5
:1020A000380C0F5F1F4FF3CF83309105D1F480912F
:1020B000E7049091E8040197C1F66091BD04709126
:1020C000BE04CE0101960E94B90DBE016F5F7F4F25
:1020D00083E996E00E943E02CE0101960E94E90C3F
:1020E00040CE049709F03DCE8091E7049091E8043A
:1020F000019709F0BACFAFEBB4E090E080E010E0D8
:1021000000E02D913D912130310569F4F801EE0F89
:10211000FF1F21E030E02C0F3D1FE20FF31F9183E2
:1021200080830F5F1F4F01968430910551F7CE01D8
:1021300001966C01F12CE12CE016F10609F411CEA8
:10214000F601619171916F01CE010F960E94B90D58
:10215000BE01615F7F4FCE0109960E94FE0DCE0148
:1021600009960E94190DBC0183E996E00E943E0287
:10217000CE0109960E94E90CCE010F960E94E90C4F
:10218000FFEFEF1AFF0AD8CF6BEA73E083E996E01E
:102190000E94380C0CCE82309105C9F48091E9047C
:1021A0009091EA04019781F7E090AD04F090AE04BD
:1021B00010E000E00E151F050CF0F9CD67EA72E0A3
:1021C00083E996E00E94380C0F5F1F4FF3CF8330F6
:1021D0009105D1F48091E9049091EA040197A1F668
:1021E0006091AF047091B004CE0101960E94B90DC8
:1021F000BE016F5F7F4F83E996E00E943E02CE01F1
:1022000001960E94E90CD3CD049709F0D0CD8091BE
:10221000E9049091EA04019709F0B6CFA1EBB4E08C
:1022200090E080E010E000E02D913D9121303105FB
:1022300069F4F801EE0FFF1F21E030E02C0F3D1F85
:10224000E20FF31F918380830F5F1F4F019684304D
:10225000910551F7CE0101966C01F12CE12CE016AD
:10226000F10609F4A4CDF601619171916F01CE01DF
:102270000F960E94B90DBE01615F7F4FCE01099696
:102280000E94FE0DCE0109960E94190DBC0183E942
:1022900096E00E943E02CE0109960E94E90CCE0112
:1022A0000F960E94E90CFFEFEF1AFF0AD8CF80913A
:1022B000A8048A3209F482CD0E94DC058093A80428
:1022C000F6CF83E996E00E947F0BA2CDCF930E94C8
:1022D00085048093A804882309F441C00E94050C5A
:1022E00062ED72E083E695E00E94380C6091A804EC
:1022F00083E695E00E9437028091A804833219F5A5
:1023000083E00E945C0B63E283E996E00E9437025F
:102310000E94DC05C82F682F83E996E00E943702EF
:10232000C13339F581E090E09093A7048093A6042F
:1023300067ED72E083E695E00E94380C6C2F83E62F
:1023400095E00E9437028091A804803311F40E9426
:102350003A0C8091A8048A3211F40E94180E83E08E
:102360000E945C0B6AEE72E083E996E0CF910C94D8
:10237000380CC233E9F60E948F0CDACF85ED8093DA
:10238000BC008091370590913805A0913905B09136
:102390003A050796A11DB11D23E0B695A79597951F
:1023A00087952A95D1F72091BC0024FD03C0109297
:1023B00035050895409137055091380560913905EC
:1023C00070913A05452B462B472B69F30097A105E1
:1023D000B10541F025E32A95F1F700000197A10925
:1023E000B109E1CF809136050C947D061F920F92C2
:1023F0000FB60F9211240BB60F922F933F934F936A
:102400005F936F937F938F939F93AF93BF93EF935C
:10241000FF9383E695E00E94C002FF91EF91BF9188
:10242000AF919F918F917F916F915F914F913F916C
:102430002F910F900BBE0F900FBE0F901F9018950D
:102440001F920F920FB60F9211240BB60F922F937B
:102450008F939F93EF93FF93E0917305F091740531
:102460008081E0917905F0917A0582FD1DC090810F
:1024700080917C058F5F8F7320917D05821741F0DD
:10248000E0917C05F0E0ED59FA4F958F80937C0543
:10249000FF91EF919F918F912F910F900BBE0F9015
:1024A0000FBE0F901F9018958081F2CF1F920F9250
:1024B0000FB60F9211242F933F938F939F93AF9357
:1024C000BF9380915F0590916005A0916105B091E7
:1024D000620530919A0423E0230F2D3758F50196B9
:1024E000A11DB11D20939A0480935F059093600510
:1024F000A0936105B093620580919B0490919C0428
:10250000A0919D04B0919E040196A11DB11D8093E0
:102510009B0490939C04A0939D04B0939E04BF9150
:10252000AF919F918F913F912F910F900FBE0F9080
:102530001F90189526E8230F0296A11DB11DD2CF3A
:102540001F920F920FB60F9211240BB60F922F937A
:102550003F934F935F936F937F938F939F93AF932B
:10256000BF93EF93FF938091B900887F803609F481
:102570004DC008F040C0883209F4A9C028F5803168
:1025800009F49DC0C8F4882309F4FBC0883009F41D
:1025900096C0FF91EF91BF91AF919F918F917F91E5
:1025A0006F915F914F913F912F910F900BBE0F90C4
:1025B0000FBE0F901F901895883109F488C08032A3
:1025C00041F78093330514C0803409F49DC040F472
:1025D0008033B9F38833E9F68093330585ECB0C0D6
:1025E000803509F485C0883509F496C0883489F6A9
:1025F0000E94BE11CECF883909F48CC038F58837D7
:1026000029F050F4883611F0803719F683E0809372
:1026100035051092990457C0883809F47BC0803979
:1026200019F0803809F0B5CF80919904803208F014
:1026300071C0E091990481E08E0F8093990480919C
:10264000BB00F0E0E758FB4F80833DC0803B39F092
:10265000E0F4803A09F479C0883A09F09ACF84E02E
:10266000809335051092780410927704E091A104CC
:10267000F091A20419958091770481110FC081E037
:10268000809377041092570409C0803C09F4A6CFC8
:10269000883C09F4A3CF883B09F07BCFE091780414
:1026A00081E08E0F80937804F0E0E95AFB4F80813F
:1026B0008093BB00909178048091770429C0809129
:1026C00010058093BB0085EC8093BC0062CF909195
:1026D000320580913105981758F5E091320581E077
:1026E0008E0F80933205F0E0EF5EFA4F8081E9CFE4
:1026F000E091320581E08E0F809332058091BB001E
:10270000F0E0EF5EFA4F80839091320580913105C1
:102710009817C8F285E8D8CFE091320581E08E0F96
:10272000809332058091BB00F0E0EF5EFA4F80832A
:102730008091340581115CCF81E080930F0584EA9C
:102740008093BC001092350524CF85EC8093BC00AB
:102750001092350580919904803230F4E09199040B
:10276000F0E0E758FB4F10826091990470E0E0912F
:102770009F04F091A00489E794E0199510929904C0
:1027800008CF1092330534CF10926605109265057C
:1027900088EE93E0A0E0B0E0809367059093680531
:1027A000A0936905B0936A052DE132E0309364058A
:1027B0002093630525EC30E03093700520936F057E
:1027C00024EC30E0309372052093710520EC30E06A
:1027D000309374052093730521EC30E03093760537
:1027E0002093750522EC30E030937805209377052F
:1027F00026EC30E030937A052093790510927C0521
:1028000010927D0510927E0510927F0510920306AE
:10281000109202068093040690930506A093060684
:10282000B09307068FE292E0909301068093000632
:1028300010929606109295068BE492E0909394067F
:102840008093930687E0809397068FEF8093980696
:1028500086E08093990682E080939A0683E08093D5
:102860009B0684E080939C0685E080939D061092F1
:102870009E0610929F061092A0061092A10610923A
:10288000A20681E00E94BB0A1092260610922A0638
:102890001092290610922B0681E492E0909325066F
:1028A00080932406E0E4F6E01082148213821582FD
:1028B000369686E0EC37F807B9F783E092E090931C
:1028C00087068093860680E092E090938906809345
:1028D000880684E080938A0683E080938B0687E0F5
:1028E00092E090938506809384068AE090E090932E
:1028F0008D0680938C0684EF91E090938F068093F1
:102900008E061092920610929106109280061092F6
:1029100081061092820610928306109290068EE134
:1029200096E00E94A20D88E196E00E94A20D82E14D
:1029300096E00E94A20D8CE096E00C94A20DCF933D
:10294000DF9300D000D0CDB7DEB7789484B5826035
:1029500084BD84B5816084BD85B5826085BD85B543
:10296000816085BD80916E00816080936E001092C1
:10297000810080918100826080938100809181003C
:1029800081608093810080918000816080938000CD
:102990008091B10084608093B1008091B00081602B
:1029A0008093B0008091910082608093910080912B
:1029B000910081608093910080919000816080936C
:1029C00090008091A10082608093A1008091A1007D
:1029D00081608093A1008091A00081608093A0001D
:1029E0008091210182608093210180912101816089
:1029F000809321018091200181608093200180914A
:102A00007A00846080937A0080917A00826080935B
:102A10007A0080917A00816080937A0080917A00B8
:102A2000806880937A001092C10081E090E09093DA
:102A3000EC048093EB041092EE041092ED041092DB
:102A40003C0510925E050E945F0684E292E090933E
:102A5000A2048093A10485E292E09093A004809365
:102A60009F04E0917305F091740582E08083E0910A
:102A70006F05F09170051082E0917105F09172057B
:102A80008FEC808310927B05E0917705F0917805BB
:102A900086E08083E0917505F09176058081806104
:102AA0008083E0917505F091760580818860808350
:102AB000E0917505F0917605808180688083E091D2
:102AC0007505F091760580818F7D80838BEF92E094
:102AD0000E94290C0E94050C0E94020A9093AA04ED
:102AE0008093A9041092A5041092A4041092A70444
:102AF0001092A60484E00E94BB0A0E94B30A63E617
:102B000072E083E996E00E94380C6091A90470910C
:102B1000AA046F3F710509F094C56BEA73E083E97D
:102B200096E00E94380C61E08BE00E94450461E071
:102B30008AE00E94450461E089E00E94450461E06A
:102B400088E00E94450460E08BE00E94130460E08E
:102B50008AE00E94130460E089E00E94130460E0B0
:102B600088E00E9413040E94A709E3EEF4E081913B
:102B700091918F3F910521F4DF0112971D921C92D4
:102B800044E0EB3EF40799F785E093E00E94290CBE
:102B90008091E3049091E4040E940B0C8091E50481
:102BA0009091E6040E940B0C8091E7049091E80458
:102BB0000E940B0C8091E9049091EA040E940B0C96
:102BC0000E9434080E948F090E9477090E945F09C1
:102BD0000E94470961E081E30E94450461E080E3CF
:102BE0000E94450461E08FE20E94450461E08EE2AC
:102BF0000E94450461E081E30E94130461E080E3E8
:102C00000E94130461E08FE20E94130461E08EE2EF
:102C10000E9413041FB7F8948091A304811127C068
:102C2000E3E9F2E08491EDE4F2E09491E82FF0E042
:102C3000EE0FFF1FE250FE4FA591B491EC91E923F6
:102C400021F461E085E30E94130461E085E30E94C2
:102C500045048CB580618CBD8CB580648CBD61E011
:102C600084E30E94450461E083E30E94450480916F
:102C7000A3048F5F8093A3041FBF8CB58C7F8CBD92
:102C80008DB58E7F8DBD27EC822E24E0922E39EB00
:102C9000432E34E0532E66246394712C55ED252E7B
:102CA00054E0352E8091EB049091EC04019709F0EB
:102CB000ADC00E94A709E3EEF4E0819191918F3FAE
:102CC000910521F4DF0112971D921C9284E0EB3EE6
:102CD000F80799F70E9434080E948F090E9477092B
:102CE0000E945F090E94470915EDA12E14E0B12E44
:102CF0000BEA14E089EBE82E84E0F82E97ECC92E5D
:102D000094E0D92E9601C701B801F5014191519186
:102D10004F3F510531F4AF0142505109DA011D9284
:102D20001C92D9014D915D919D014F3F510531F4A8
:102D3000AD0142505109DA011D921C92DC014D9106
:102D40005D91CD014F3F510531F4AD014250510924
:102D5000DA011D921C92DB014D915D91BD014F3F47
:102D6000510531F4AD0142505109DA011D921C9216
:102D7000B4E0E33EFB0751F68FE093E00E94290C9C
:102D8000F501619171915F0183E695E00E947F0BEF
:102D9000F3EEAF16F4E0BF0699F70E94050C8AE146
:102DA00093E00E94290CD6016D917D916D0183E61F
:102DB00095E00E947F0BB5EDCB16B4E0DB0699F7EA
:102DC0000E94050C85E293E00E94290CF7016191B5
:102DD00071917F0183E695E00E947F0B8E149F0422
:102DE000A9F70E94050C80E393E00E94290CD8010A
:102DF0006D917D918D0183E695E00E947F0B4016D9
:102E00005106A9F70E94050C0E94180E8091EB0450
:102E10009091EC0401969093EC048093EB0485E090
:102E200093E00E94290C8091E3049091E4040E94B5
:102E30000B0C8091E5049091E6040E940B0C8091AC
:102E4000E7049091E8040E940B0C8091E9049091B2
:102E5000EA040E940B0C0E94020A9093AA04809339
:102E6000A90462E370E080E090E00E9406060E9400
:102E700085048093A804882309F440C00E94050CAF
:102E800062ED72E083E695E00E94380C6091A80440
:102E900083E695E00E9437028091A804833211F501
:102EA00083E00E945C0B63E283E996E00E943702B4
:102EB0000E94DC05182F682F83E996E00E943702F4
:102EC000113309F0C3C37092A7046092A60467EDA2
:102ED00072E083E695E00E94380C612F83E695E06E
:102EE0000E9437028091A804803311F40E943A0CAA
:102EF0008091A8048A3211F40E94180E83E00E9487
:102F00005C0B6AEE72E083E996E00E94380C60E0A8
:102F100081E30E94130460E080E30E94130460E0F8
:102F20008FE20E94130460E08EE20E9413046AE0C4
:102F300070E080E090E00E9406061091A904105D08
:102F4000812F0E946008812F0E941A0C1091A40406
:102F5000105D812F0E946008812F0E941A0C109131
:102F6000A604105D812F0E946008812F0E941A0C18
:102F700061E081E30E94130461E080E30E94130496
:102F800061E08FE20E94130461E08EE20E9413046C
:102F90006AE070E080E090E00E9406068091A6045E
:102FA0009091A7040197E1F583E00E945C0B6BE32D
:102FB00073E083E996E00E94380C0E94DC05809360
:102FC000A804833209F048C31092A7041092A60403
:102FD00083E00E945C0B63E473E083E996E00E9467
:102FE000380C68EC70E080E090E00E9406060E94D9
:102FF000B30A80E00E945C0B63E672E083E996E02E
:103000000E94380C6091A9047091AA046F3F710569
:1030100009F037C36BEA73E083E996E00E94380C4D
:1030200060E081E30E9413046AE070E080E090E0D9
:103030000E94060665E572E08EE196E00E94AF0D03
:103040000CE010E080E20E946008682FCE0101963B
:103050000E94E50DBE016F5F7F4F8EE196E00E94FA
:10306000460DCE0101960E94E90C0150110951F75D
:1030700064E670E080E090E00E94060661E070E0A7
:103080008EE196E00E942602082F880F110B005354
:1030900011091093E4040093E304A5EDCA2EA4E003
:1030A000DA2E5601B2E0EB2EF12CB7018EE196E05C
:1030B0000E942602082E000C990BC097F5018193FF
:1030C00091935F01FFEFEF1AFF0A49E0E416F10464
:1030D00061F70E94340880E50E941A0290E080E0C7
:1030E0000E940B088AE090E00E940B08C8010E9431
:1030F0000B080E949E06F5EDEF2EF4E0FF2E02E392
:1031000010E0D7016D917D917D01C8010E941408E6
:103110000F5F1F4F09331105A1F76CE473E083E6DD
:1031200095E00E94380C6EE176E083E695E00E941F
:103130003E020E94050C68E673E083E695E00E947B
:10314000380C6091E3047091E40483E695E00E94FA
:103150007F0B0E94050C67E773E083E695E00E9411
:10316000380CF601619171916F0183E695E00E9440
:103170007F0B83EE94E08C159D0599F70E94050C5A
:1031800084E893E00E94290C0E94050C61E081E331
:103190000E9413046AE070E080E090E00E9406065E
:1031A0000E94661160E080E30E9413046AE070E010
:1031B00080E090E00E94060665E572E088E196E016
:1031C0000E94AF0D0CE010E080E20E946008682FC2
:1031D000CE0101960E94E50DBE016F5F7F4F88E131
:1031E00096E00E94460DCE0101960E94E90C015026
:1031F000110951F76AE070E080E090E00E94060655
:1032000061E070E088E196E00E942602082F880FB6
:10321000110B005311091093E6040093E50477ECB9
:10322000C72E74E0D72E5601E2E0EE2EF12CB70146
:1032300088E196E00E942602082E000C990BC097A8
:10324000D5018D939D935D01BFEFEB1AFB0AE9E079
:10325000EE16F10461F70E94340880E50E941A021C
:1032600090E080E00E940B088BE090E00E940B0849
:10327000C8010E940B080E949E0667ECE62E64E0DF
:10328000F62E0BE410E0D7016D917D917D01C80110
:103290000E9414080F5F1F4F02351105A1F76DEA58
:1032A00073E083E695E00E94380C68E176E083E6FF
:1032B00095E00E943E020E94050C69EC73E083E6F3
:1032C00095E00E94380C6091E5047091E60483E675
:1032D00095E00E947F0B0E94050C68ED73E083E689
:1032E00095E00E94380CF601619171916F0183E6BF
:1032F00095E00E947F0B2C143D04A9F70E94050C59
:1033000084E893E00E94290C0E94050C61E080E3B0
:103310000E9413046AE070E080E090E00E940606DC
:103320000E94661160E08FE20E9413046AE070E080
:1033300080E090E00E94060665E572E082E196E09A
:103340000E94AF0D0CE010E080E20E946008682F40
:10335000CE0101960E94E50DBE016F5F7F4F82E1B5
:1033600096E00E94460DCE0101960E94E90C0150A4
:10337000110951F76AE070E080E090E00E940606D3
:1033800061E070E082E196E00E942602082F880F3B
:10339000110B005311091093E8040093E70449EB63
:1033A000C42E44E0D42E560152E0E52EF12CB70194
:1033B00082E196E00E942602082E000C990BC0972D
:1033C000D5018D939D935D01BFEFEB1AFB0AE9E0F8
:1033D000EE16F10461F70E94340880E50E941A029B
:1033E00090E080E00E940B088CE090E00E940B08C7
:1033F000C8010E940B080E949E0639EBE32E34E0C0
:10340000F32E04E610E0D7016D917D917D01C80196
:103410000E9414080F5F1F4F0B361105A1F765EED0
:1034200073E083E695E00E94380C62E176E083E683
:1034300095E00E943E020E94050C61E074E083E684
:1034400095E00E94380C6091E7047091E80483E6EF
:1034500095E00E947F0B0E94050C60E174E083E61A
:1034600095E00E94380CF601619171916F0183E63D
:1034700095E00E947F0B8C149D04A9F70E94050C17
:1034800084E893E00E94290C0E94050C61E08FE221
:103490000E9413046AE070E080E090E00E9406065B
:1034A0000E94661160E08EE20E9413046AE070E000
:1034B00080E090E00E94060665E572E08CE096E010
:1034C0000E94AF0D0CE010E080E20E946008682FBF
:1034D000CE0101960E94E50DBE016F5F7F4F8CE02B
:1034E00096E00E94460DCE0101960E94E90C015023
:1034F000110951F76AE070E080E090E00E94060652
:1035000061E070E08CE096E00E942602082F880FB0
:10351000110B005311091093EA040093E9049BEA8C
:10352000C92E94E0D92E560122E0E22EF12CB701EB
:103530008CE096E00E942602082E000C990BC097A2
:10354000D5018D939D935D01BFEFEB1AFB0AE9E076
:10355000EE16F10461F70E94340880E50E941A0219
:1035600090E080E00E940B088DE090E00E940B0844
:10357000C8010E940B080E949E068BEAE82E84E098
:10358000F82E0DE710E0D7016D917D917D01C80106
:103590000E9414080F5F1F4F04381105A1F76DE159
:1035A00074E083E695E00E94380C6CE076E083E6F8
:1035B00095E00E943E020E94050C69E374E083E6F8
:1035C00095E00E94380C6091E9047091EA0483E66A
:1035D00095E00E947F0B0E94050C68E474E083E68E
:1035E00095E00E94380CF601619171916F0183E6BC
:1035F00095E00E947F0BF9EBCF16F4E0DF0699F718
:103600000E94050C84E893E00E94290C0E94050C9E
:1036100061E08EE20E9413046AE070E080E090E0D6
:103620000E9406060E9466118091A4049091A50450
:10363000019721F41092A5041092A4040E944F0354
:1036400031CB83E996E00E947F0B6DCA123309F0FB
:103650003ECC0E948F0C3BCC8091A804833209F4AD
:10366000B3CC0E94DC058093A8048332A9F383E0E5
:103670000E945C0B6BE373E083E996E00E94380CD8
:10368000EBCF83E996E00E947F0BCACC8CE096E0FA
:103690000E94E90C82E196E00E94E90C88E196E044
:1036A0000E94E90C8EE196E00C94E90CBB274A30AD
:1036B00031F4992322F4BDE2909581959F4F0C94AB
:1036C000621BBB27FB015527AA27880F991FAA1F3A
:1036D000A41710F0A41B83955051B9F7A05DAA332D
:1036E00008F0A95DA193009779F7B111B1931192F8
:1036F000CB010C947B1BDC01FC01672F71917723BC
:10370000E1F7329704C07C916D9370836291AE179C
:10371000BF07C8F30895A1E21A2EAA1BBB1BFD0127
:103720000DC0AA1FBB1FEE1FFF1FA217B307E407A0
:10373000F50720F0A21BB30BE40BF50B661F771FF8
:10374000881F991F1A9469F76095709580959095D8
:103750009B01AC01BD01CF010895EE0FFF1F881F33
:103760008BBF0790F691E02D19940F931F93CF9381
:10377000DF938230910510F482E090E0E091AD0695
:10378000F091AE0630E020E0B0E0A0E0309799F490
:103790002115310509F44AC0281B390B24303105A5
:1037A000D8F58A819B816115710589F1FB019383AD
:1037B0008283FE0111C0408151810281138148172B
:1037C0005907E0F04817590799F4109761F01296DD
:1037D0000C93129713961C933296CF01DF91CF91E1
:1037E0001F910F9108950093AD061093AE06F4CF8C
:1037F0002115310551F04217530738F0A901DB01BB
:103800009A01BD01DF01F801C1CFEF01F9CF90931B
:10381000AE068093AD06CDCFFE01E20FF31F81937C
:1038200091932250310939832883D7CF2091AB0659
:103830003091AC06232B41F42091150230911602F1
:103840003093AC062093AB06209113023091140202
:103850002115310541F42DB73EB740911702509123
:103860001802241B350BE091AB06F091AC06E21771
:10387000F307A0F42E1B3F0B2817390778F0AC0193
:103880004E5F5F4F2417350748F04E0F5F1F509370
:10389000AC064093AB06819391939FCFF0E0E0E0BC
:1038A0009CCFCF93DF930097E9F0FC01329713820E
:1038B0001282A091AD06B091AE06ED0130E020E09D
:1038C0001097A1F420813181820F931F2091AB06C4
:1038D0003091AC062817390709F061C0F093AC06A7
:1038E000E093AB06DF91CF910895EA01CE17DF0791
:1038F000E8F54A815B819E0141155105B1F7E90167
:10390000FB83EA8349915991C40FD51FEC17FD073A
:1039100061F4808191810296840F951FE90199835A
:103920008883828193819B838A83F0E0E0E0129612
:103930008D919C9113970097B9F52D913C9111971A
:10394000CD010296820F931F2091AB063091AC06F9
:103950002817390739F6309751F51092AE061092B4
:10396000AD06B093AC06A093AB06BCCFD383C283A5
:1039700040815181840F951FC817D90761F44E5FAC
:103980005F4F88819981480F591F518340838A81F5
:103990009B81938382832115310509F0B0CFF09389
:1039A000AE06E093AD069ECFFD01DC01C0CF1382D1
:1039B0001282D7CF4F925F926F927F928F929F9297
:1039C000AF92BF92CF92DF92EF92FF920F931F932D
:1039D000CF93DF938C01009799F4CB01DF91CF91C6
:1039E0001F910F91FF90EF90DF90CF90BF90AF901D
:1039F0009F908F907F906F905F904F900C94B51B2D
:103A0000FC01E60FF71F9C0122503109E217F30772
:103A100008F4AEC0D901CD91DC911197C617D70734
:103A200020F1C530D10578F0CE01049786179707AD
:103A300050F0C61BD70B2297C193D1936D937C9303
:103A4000CF010E94511CC801DF91CF911F910F91AE
:103A5000FF90EF90DF90CF90BF90AF909F908F90AE
:103A60007F906F905F904F9008955B01AC1ABD0AF4
:103A70004C018C0E9D1EA091AD06B091AE06512C4E
:103A8000412CF12CE12C109731F58091AB069091EF
:103A9000AC068815990509F05CC04616570608F073
:103AA00058C08091130290911402009741F48DB791
:103AB0009EB74091170250911802841B950BE8178E
:103AC000F90708F055C0F093AC06E093AB06F90196
:103AD00071836083B8CF8D919C91119712966C90F1
:103AE000129713967C901397A815B90559F56C0198
:103AF00042E0C40ED11CCA14DB0420F1AC014A1907
:103B00005B09DA011296159780F062827382518305
:103B10004083D9016D937C93E114F10471F0D701D6
:103B20001396FC93EE9312978ECF22968C0F9D1FC7
:103B3000F90191838083F301EFCFF093AE06E09318
:103B4000AD0681CF4816590608F42C017D01D3013A
:103B50009ACFCB010E94B51B7C01009749F0AE01C2
:103B6000B8010E94BB1DC8010E94511C87016BCF88
:103B700010E000E068CFFB01DC0102C001900D9273
:103B800041505040D8F70895FB01DC0101900D929F
:103B90000020E1F7089511E0C3E5D1E000E006C0A0
:103BA000802FFE010E94AD1B2196011DC435D10757
:0A3BB00080E00807A9F7F894FFCFA2
:103BBA00181716191A1B1C3132333435363738396F
:103BCA002A30230000AF06800000000000E2024C09
:103BDA000279022F03AA0288029C0200000000DC7C
:103BEA0007AF0711088507A8079507860700000091
:103BFA0000810441041004000000006A0B4C021109
:103C0A000810080D0A00456E746572206D6F6465B0
:103C1A003A20004D6F64653A20005B456E642D566C
:103C2A006F74696E675D005B526573746172742D9F
:103C3A00566F74696E675D005B53686F772D5265C6
:103C4A0073756C74735D00557365722D313A20007B
:103C5A004E6F00596573002A00557365722D323A0A
:103C6A002000557365722D333A2000557365722D05
:103C7A00343A20005B456E642D53686F77696E672E
:103C8A005D006B65793A006B6579466F72506175B4
:103C9A0073654F7253746F703A00202020202020E1
:103CAA0020202020202020202020002D3E204D6191
:103CBA00737465720075736572546F6B656E007507
:103CCA00736572566F74655F310075736572566FEE
:103CDA0074655F320075736572566F74655F330081
:103CEA0075736572566F74655F34005B50617573E6
:103CFA00655D005B526573756D655D005265636550
:103D0A0069766520646174612066726F6D20536CF8
:103D1A006176652D313A200075736572546F6B6553
:103D2A006E5B305D3A200075736572566F74655F1D
:103D3A00313A20002D2D2D2D2D2D2D2D2D2D2D2DD2
:103D4A002D2D2D2D2D2D2D2D2D2D2D2D2D2D2D2D99
:103D5A002D2D2D2D2D2D2D2D2D2D2D2D0052656323
:103D6A006569766520646174612066726F6D20539F
:103D7A006C6176652D323A200075736572546F6BEB
:103D8A00656E5B315D3A200075736572566F7465B6
:103D9A005F323A2000526563656976652064617412
:103DAA00612066726F6D20536C6176652D333A20FF
:103DBA000075736572546F6B656E5B325D3A2000F5
:103DCA0075736572566F74655F333A200052656386
:103DDA006569766520646174612066726F6D20532F
:103DEA006C6176652D343A200075736572546F6B79
:103DFA00656E5B335D3A200075736572566F746544
:063E0A005F343A200000C5
:00000001FF
