:100000000C9445010C9476010C9476010C947601C5
:100010000C9476010C9476010C9476010C94760184
:100020000C9476010C9476010C9476010C94760174
:100030000C9476010C94260B0C9476010C947601AA
:100040000C9476010C9476010C9476010C94760154
:100050000C9476010C9476010C9476010C94E60BCA
:100060000C94500D0C94B00B0C94860B0C947601F0
:100070000C9476010C9476010C9476010C94760124
:100080000C9476010C9476010C9476010C94760114
:100090000C9476010C9476010C9476010C94300C3F
:1000A0000C9476010C9476010C9476010C947601F4
:1000B0000C9476010C9476010C9476010C947601E4
:1000C0000C9476010C9476010C9476010C947601D4
:1000D0000C9476010C9476010C9476010C947601C4
:1000E0000C9476010C94B8070C9422090C94A1038B
:1000F0000C9499030C940B020C9450020C94F7028C
:100100000C947B030C94B7070C94A70D0C94660316
:100110000C940B070C946C030C948B030C94090443
:100120000C9474030C94A7030C949D030C9470031B
:100130000C9464020C94AB030C9441020C94D8030D
:100140000C9485030C94C0130C94AA020C947202B4
:100150000C9478030C94A6030C9481030C949303E1
:100160000C948F0300002100240027002A002D009A
:100170003000330001010000040107010A01000002
:1001800020002300260029002C002F00320000014F
:10019000000003010601090100000A0B02090C0D11
:1001A0000E0807030401000000000000000000002A
:1001B000000000000000000000000000000000003F
:1001C00000000000121110000000000000000000FC
:1001D000000000000000000000000000000001021C
:1001E0001020200808102040102040800201020149
:1001F0000804020101020408102040808040201001
:100200000804020180040201804020100804020159
:1002100008040201010204081020408001020408C1
:100220001020408000002200250028002B002E0016
:100230003100340002010000050108010B01050531
:100240000505070508080808020202020A0A08084C
:10025000040404040101010101010101030303037A
:1002600003030303040707070C0C0C0C0C0C0C0C09
:100270000202020206060606060606060B0B0B0B1A
:100280000B0B0B0B0200A70DC01311241FBECFEFE9
:10029000D1E2DEBFCDBF00E00CBF24E0AAEDB2E0AA
:1002A00001C01D92A83DB207E1F712E0A0E0B2E064
:1002B000E8ECFDE200E00BBF02C007900D92AA3D02
:1002C000B107D9F711E0C4E4D1E000E006C02197FE
:1002D0000109802FFE010E94A514C334D10780E0DC
:1002E0000807A9F70E94680E0C94D2160C9400001F
:1002F00096E0899FD0011124A55BBB4F90967C931B
:100300006E935F9791E091969C939197E091B804DA
:10031000F091B9049091B704992339F0309751F0D6
:10032000811108C0809167041994309719F05C9688
:100330008C91FACF0895CF92DF92EF92FF920F93B4
:100340001F9396E0899FF0011124E55BFB4F11A2FA
:10035000278D30A12130310551F178F0223031055F
:1003600009F451C02330310509F452C01F910F9197
:10037000FF90EF90DF90CF9008956623B9F361E08E
:1003800070E00E9478012FB7F89480917E039091DD
:100390007F03A0918003B09181032FBF8093A304BA
:1003A0009093A404A093A504B093A604DFCF9FB7B5
:1003B000F894C0907E03D0907F03E0908003F0908B
:1003C00081039FBF0091A3041091A4042091A50470
:1003D0003091A604C01AD10AE20AF30A0091B504CA
:1003E0001091B60430E020E00C151D052E053F05E8
:1003F00050F462E070E01F910F91FF90EF90DF905A
:10040000CF900C9478016111B1CF63E070E0F3CF2D
:1004100070E060E0F0CFAF92BF92CF92DF92EF92A8
:10042000FF920F931F93CF93DF936C017B018B019E
:10043000040F151FEB015E01AE18BF08C017D107EE
:1004400059F06991D601ED91FC910190F081E02D78
:10045000C6011995892B79F7C501DF91CF911F91BD
:100460000F91FF90EF90DF90CF90BF90AF900895E5
:10047000FC0144815581608171818AEB94E00C9488
:100480000B02FC01538D448D252F30E0842F90E02A
:10049000821B930B541710F0CF960895019708957F
:1004A000FC01918D828D981761F0A28DAE0FBF2F48
:1004B000B11D5D968C91928D9F5F9F73928F90E09E
:1004C00008958FEF9FEF0895FC01918D828D98170D
:1004D00031F0828DE80FF11D858D90E008958FEF4A
:1004E0009FEF0895FC01918D228D892F90E0805C13
:1004F0009F4F821B91098F739927089582EA93E099
:100500000E94720221E0892B09F420E0822F0895D5
:10051000FC01A48DA80FB92FB11DA35ABF4F2C9178
:10052000848D90E001968F739927848FA689B7896F
:100530002C93A089B1898C91837080648C93938D66
:10054000848D981306C00288F389E02D80818F7D09
:1005500080830895EF92FF920F931F93CF93DF93C1
:10056000EC0181E0888F9B8D8C8D98131AC0E889EF
:10057000F989808185FF15C09FB7F894EE89FF89BE
:100580006083E889F98980818370806480839FBF5C
:1005900081E090E0DF91CF911F910F91FF90EF905C
:1005A0000895F62E0B8D10E00F5F1F4F0F7311276C
:1005B000E02E8C8D8E110CC00FB607FCFACFE889A7
:1005C000F989808185FFF5CFCE010E948802F1CFA5
:1005D000EB8DEC0FFD2FF11DE35AFF4FF0829FB71B
:1005E000F8940B8FEA89FB8980818062CFCFCF930B
:1005F000DF93EC01888D8823B9F0AA89BB89E8894B
:10060000F9898C9185FD03C0808186FD0DC00FB6F0
:1006100007FCF7CF8C9185FFF2CF808185FFEDCF6E
:10062000CE010E948802E9CFDF91CF91089580E04A
:1006300090E0892B29F00E947E0281110E94000027
:1006400080E090E0892B49F080E090E0892B29F050
:100650000E94000081110E94000080E090E0892B40
:1006600049F080E090E0892B29F00E940000811180
:100670000E94000080E090E0892B49F080E090E04B
:10068000892B29F00E94000081110C94000008952C
:100690008150823108F05AC0E82FF0E08827EC5AE8
:1006A000FC4F8F4F0C94A5147403780366036C03FE
:1006B0007003A6037B03810385038B038F039303DE
:1006C00099039D03A603A103A703AB0380918000B8
:1006D0008F77809380000895809180008F7DF9CF7F
:1006E00080918000877FF5CF84B58F7784BD089592
:1006F00084B58F7DFBCF8091B0008F778093B00061
:1007000008958091B0008F7DF9CF809190008F7710
:10071000809390000895809190008F7DF9CF809113
:100720009000877FF5CF8091A0008F778093A00005
:1007300008958091A0008F7DF9CF8091A000877FE0
:10074000F5CF809120018F778093200108958091CB
:1007500020018F7DF9CF80912001877FF5CFCF9346
:10076000DF93282F30E0F901E856FE4F8491F9011C
:10077000E252FE4FD491F901E25CFD4FC491CC23CB
:10078000A1F081110E944803EC2FF0E0EE0FFF1F53
:10079000E258FE4FA591B491EC91ED2381E090E0F9
:1007A00009F480E0DF91CF91089580E090E0FACFE6
:1007B000862F0C94AF031F93CF93DF93282F30E045
:1007C000F901E856FE4F8491F901E252FE4FD491AF
:1007D000F901E25CFD4FC491CC23A9F0162F8111E1
:1007E0000E944803EC2FF0E0EE0FFF1FEC5DFD4F81
:1007F000A591B4918FB7F894EC91111108C0D095E0
:10080000DE23DC938FBFDF91CF911F910895DE2B04
:10081000F8CF862F642F0C94DB039091000289138C
:100820000DC0E4E8F2E0E4919FEF90930002E23023
:10083000E1F038F4EE2381F0E13089F060E00C94CF
:10084000DB03E43049F110F1E530C1F7909173001A
:100850009D7F90937300F2CF10926E00EFCF909136
:100860006F009D7F90936F00E9CF909170009D7F06
:100870009093700091E09093B0009091B100987FB8
:1008800094609093B1001092B300D8CF9091710012
:100890009D7F90937100D2CF909172009D7F909335
:1008A0007200CCCFCF93DF9390E0FC01E252FE4F79
:1008B0002491825C9D4FFC0184918823C9F090E0D3
:1008C000880F991FFC01EC59FE4FA591B491FC01D2
:1008D000EC5DFD4FC591D49161110DC09FB7F894A7
:1008E0008C91209582238C938881282328839FBF15
:1008F000DF91CF910895623051F49FB7F8943C9105
:10090000822F809583238C93E8812E2BEFCF8FB796
:10091000F894EC912E2B2C938FBFEACF8F929F925D
:10092000AF92BF92CF92DF92EF92FF92CF936C0182
:1009300080910002823269F08F3F09F4A2C0CF910A
:10094000FF90EF90DF90CF90BF90AF909F908F90EF
:100950000895E4E8F2E0C491C7FDF1CF61E082E2DE
:100960000E945204F12CE12CCC23E1F0B12CA12CFB
:10097000C23009F05AC1750160E970ED83E090E082
:10098000A50196010E948614BA01A901415051099E
:100990006109710983E04F3F51056105710509F057
:1009A0000CF45DC060E072E18AE790E0A701960177
:1009B0000E94861449015A0168E478EE81E090E0D3
:1009C000A70196010E948614BA01A901415051095C
:1009D00061097109CC2309F4ECC1C23009F0E7C107
:1009E00084E04F3F510561057105C9F1C4F164E22E
:1009F00074EF80E090E0A70196010E948614BA018E
:100A0000A901415051096109710985E04F3F510524
:100A10006105710521F118F162E17AE780E090E06B
:100A2000A70196010E948614BA01A90141505109FB
:100A30006109710986E04F3F51056105710579F043
:100A400074F0B501A4019AE075956795579547959F
:100A50009A95D1F7415051096109710987E0909148
:100A6000B100987F892B8093B100C23009F47DC119
:100A70000CF074C1CC2309F4BCC1C13009F05FCFC4
:100A800000C182E280930002E4E8F2E0C4918C2F7E
:100A9000CF3F09F454CFC23009F468C060F4CC23CE
:100AA00079F1C13009F444C087FD49CF61E082E2A9
:100AB0000E9452045BCFC43009F499C008F478C096
:100AC000C53091F7109220011092210180912101EF
:100AD00088608093210180912101816080932101B0
:100AE000E0E6F2E0E491F0E0EE0FFF1FEC5DFD4F79
:100AF00085919491E0E0F2E0E491E09382032ECFBF
:100B000014BC15BC84B5826084BD85B5816085BD8B
:100B1000E0E6F2E0E491F0E0EE0FFF1FEC5DFD4F48
:100B200085919491E0E0F2E0E491E093890316CF9F
:100B300010928000109281008091810088608093E3
:100B4000810080918100816080938100E0E6F2E085
:100B5000E491F0E0EE0FFF1FEC5DFD4F8591949165
:100B6000E0E0F2E0E491E0938803F8CE1092B00068
:100B70001092B1008091B00082608093B0008091AB
:100B8000B10081608093B100E0E6F2E0E491F0E032
:100B9000EE0FFF1FEC5DFD4F8591949190938703BD
:100BA00080938603E0E0F2E0E491E0938503D6CE03
:100BB0001092900010929100809191008860809333
:100BC000910080919100816080939100E0E6F2E0D5
:100BD000E491F0E0EE0FFF1FEC5DFD4F85919491E5
:100BE000E0E0F2E0E491E0938403C3E0B7CE10923A
:100BF000A0001092A1008091A10088608093A100C4
:100C00008091A10081608093A100E0E6F2E0E49190
:100C1000F0E0EE0FFF1FEC5DFD4F85919491E0E059
:100C2000F2E0E491E093830399CE60E072E18AE719
:100C300090E0A50196010E948614BA01A9014150D5
:100C400051096109710991E04115510581E0680779
:100C500071057CF068E478EE81E090E0A5019601F2
:100C60000E948614BA01A901415051096109710914
:100C700093E0C130D9F480918100887F892B8093E3
:100C8000810050938900409388008FEF9FEFDC0133
:100C900080939A0390939B03A0939C03B0939D032E
:100CA00080916F00826080936F0049CEC330D9F489
:100CB00080919100887F892B8093910050939900B7
:100CC000409398008FEF9FEFDC0180939203909305
:100CD0009303A0939403B093950380917100826075
:100CE000809371002CCEC430D9F48091A100887F0C
:100CF000892B8093A1005093A9004093A8008FEF07
:100D00009FEFDC0180938E0390938F03A093900359
:100D1000B0939103809172008260809372000FCE35
:100D2000C53009F0A2CE80912101887F892B809364
:100D3000210150932901409328018FEF9FEFDC019F
:100D400080938A0390938B03A0938C03B0938D03BD
:100D500080917300826080937300F1CDC43059F2AA
:100D60000CF4ACCFC53029F3EACD4093B3008FEF3C
:100D70009FEFDC018093960390939703A0939803D1
:100D8000B093990380917000826080937000D7CDFA
:100D9000B501A4018AE075956795579547958A95A1
:100DA000D1F7415051096109710995E01EC084E0F5
:100DB0002DCE93E04F3F510561057105B1F0ACF0C8
:100DC00062E17AE780E090E0A70196010E94861434
:100DD000BA01A90141505109610971094F3F5105FB
:100DE0006105710509F0A4F694E085B5887F892B2B
:100DF00085BD47BD8FEF9FEFDC0180939E039093ED
:100E00009F03A093A003B093A10380916E00826022
:100E100080936E0094CD862F642F0C9452043FB7BC
:100E2000F89480914C0390914D03A0914E03B091A2
:100E30004F0326B5A89B05C02F3F19F00196A11DB1
:100E4000B11D3FBFBA2FA92F982F8827BC01CD0114
:100E5000620F711D811D911D42E0660F771F881F73
:100E6000991F4A95D1F708958F929F92AF92BF92A2
:100E7000CF92DF92EF92FF924B015C010E940F072D
:100E80006B017C010E940F076C197D098E099F0977
:100E9000683E734081059105A8F321E0821A91080C
:100EA000A108B10888EEC80E83E0D81EE11CF11C31
:100EB00081149104A104B10429F7FF90EF90DF9011
:100EC000CF90BF90AF909F908F9008952091010395
:100ED000260F3327331F21323105ECF420912503EF
:100EE000FC0190E080E0243069F082E00895A09158
:100EF00001032191AC014F515D4FA40FB52FB11DDE
:100F00002C930196861798F380910103680F6093E4
:100F1000010380E0089581E0089508958FEF9FEF29
:100F200008958FEF9FEF08958091DA0290E09195F8
:100F3000819591090895CF93DF93CB01EA01642F46
:100F40000E946607CE01DF91CF910895CF93DF9382
:100F50001F92CDB7DEB7698361E0CE0101960E9492
:100F6000660781E090E00F90DF91CF91089508959A
:100F700090E080E00895809172039091730301974F
:100F800041F461E088E00E94DB0360E089E00C94BA
:100F9000DB0360E088E00E94DB0361E0F7CFCF93E2
:100FA000DF93EC0160E08E810E94DB0361E08E81C3
:100FB0000E94DB0360E08E810E94DB038BE891E0FE
:100FC0000197F1F7DF91CF910895CF92DF92EF92E1
:100FD000FF920F931F93CF93DF936C017C0187E007
:100FE000E80EF11CD0E0C0E0062F10E0B8010C2E96
:100FF00002C0759567950A94E2F76170F7018191D7
:101000007F010E94DB032196C430D10579F7C60128
:10101000DF91CF911F910F91FF90EF90DF90CF90D4
:101020000C94CF07CF92DF92EF92FF920F931F9312
:10103000CF93DF93EC01F62E642F8C810E94DB03AB
:101040008D818F3F19F060E00E94DB030F2D10E0CF
:101050008F8584FF25C06E0187E0C80ED11CF12C5E
:10106000E12CB8010E2C02C0759567950A94E2F741
:101070006170F60181916F010E94DB03FFEFEF1AAF
:10108000FF0A88E0E816F10461F7CE01DF91CF9105
:101090001F910F91FF90EF90DF90CF900C94CF07AE
:1010A000B80184E0759567958A95E1F7CE010E94B5
:1010B000E5076F2DCE01DF91CF911F910F91FF902A
:1010C000EF90DF90CF900C94E50740E0682F8AEB1B
:1010D00094E00C94120881E00E9465088BE39FE184
:1010E0000197F1F70895CF93DF93813029F0909124
:1010F000C90498609093C9048093CD041092CE04E3
:1011000080E48093CF0480E18093D00480E58093D5
:10111000D10461E08091BE040E9452048091BF041A
:101120008F3F19F061E00E94520461E08091C00499
:101130000E945204CAEBD4E09E012A5B34408091A5
:10114000C90484FD0BC084E090E02196281739077C
:1011500044F461E08E810E945204EECF88E090E07A
:10116000F4CF8BE39DE00197F1F760E08091BE043E
:101170000E94DB0360E08091C0040E94DB03809149
:10118000BF048F3F19F060E00E94DB038091C90427
:1011900084FD34C063E08AEB94E00E94E507CBE471
:1011A000D6E4CE010197F1F763E08AEB94E00E9468
:1011B000E5072197F1F763E08AEB94E00E94E507E9
:1011C00083E592E00197F1F762E08AEB94E00E94F8
:1011D000E5078091C90480620E94650884E08093DD
:1011E000CA048CE00E9465080E946B0882E080932C
:1011F000CB0486E0DF91CF910C94650880620E9459
:1012000065088BE496E40197F1F78091C904806248
:101210000E94650883E592E00197F1F78091C90487
:1012200080620E946508D5CF9091CD04891710F097
:101230008FEF890FE82FF0E0E654FB4F8489806838
:101240000C94650841E00E94120881E090E0089546
:10125000FB0101900020E9F73197AF01461B570BC6
:10126000DC01ED91FC910280F381E02D199462E4A0
:1012700072E082EA93E00C9428098F929F92AF92D9
:10128000BF92EF92FF920F931F93CF93DF93CDB74F
:10129000DEB7A1970FB6F894DEBF0FBECDBF7C01BD
:1012A000FA01CB0119A2223008F42AE08E010F5D69
:1012B0001F4F822E912CB12CA12CBF01A5019401AE
:1012C0000E946414F901CA016A300CF5605DD8010E
:1012D0006E938D01232B242B252B79F790E080E052
:1012E000109721F0BD01C7010E942809A1960FB6F1
:1012F000F894DEBF0FBECDBFDF91CF911F910F914C
:10130000FF90EF90BF90AF909F908F900895695C91
:10131000DECFCF92DF92EF92FF920F931F93CF9386
:10132000DF93EC016A017B01E881F9810190F08192
:10133000E02D6DE219958C0144275527BA014C190F
:101340005D096E097F092AE0CE010E943D09800FE8
:10135000911FDF91CF911F910F91FF90EF90DF9040
:10136000CF900895CF93DF93AC01990F660B770B65
:1013700077FF0CC082EA93E00E948909EC010E9489
:1013800037098C0F9D1FDF91CF9108952AE082EAE3
:1013900093E00E943D09F2CFAB01770F660B770B0C
:1013A00077FD0C9489092AE00C943D09CF93DF93D3
:1013B000BC0182EA93E00E942809EC010E943709EF
:1013C0008C0F9D1FDF91CF9108950C942809FC018B
:1013D00080819181009711F00C94491508950F9325
:1013E0001F93CF93DF93EC0188819981009759F087
:1013F0002A813B812617370730F081E0DF91CF91BA
:101400001F910F9108958B016F5F7F4F0E94D2153E
:10141000009759F0998388831B830A832C813D812F
:10142000232B59F7FC011082E8CF80E0E7CFEF9241
:10143000FF920F931F93CF93DF936115710541F4D2
:1014400080E0DF91CF911F910F91FF90EF90089571
:1014500041155105B1F07B01EC010C811D81040F98
:10146000151FB8010E94EF09882351F328813981A3
:101470008C819D81B701820F931F0E94BC161D8332
:101480000C8381E0DECFEF92FF920F931F93CF93F7
:10149000DF93EC017B018A01BA010E94EF092881E8
:1014A0003981811114C02115310519F0C9010E943B
:1014B0004915198218821D821C821B821A82CE0154
:1014C000DF91CF911F910F91FF90EF9008951D83B1
:1014D0000C83B701C9010E94BC16F1CFFC01118237
:1014E0001082138212821582148250E040E064E47C
:1014F00072E00C94430AFB0101900020E9F7319758
:10150000AF01461B570B0C94430A0F931F93CF93C5
:10151000DF93CDB7DEB762970FB6F894DEBF0FBE8C
:10152000CDBF8C01CB01F80111821082138212828F
:10153000158214824AE0BE016F5F7F4F0E941A1429
:10154000BE016F5F7F4FC8010E947B0A62960FB693
:10155000F894DEBF0FBECDBFDF91CF911F910F91E9
:1015600008951F93CF93DF9385ED8093BC00809106
:10157000DD029091DE02A091DF02B091E0020796B9
:10158000A11DB11D23E0B695A795979587952A953E
:10159000D1F72091BC0024FD03C01092250352C056
:1015A0004091DD025091DE026091DF027091E00215
:1015B000452B462B472B69F30097A105B10541F058
:1015C00025E32A95F1F700000197A109B109E1CFC0
:1015D0008091DC02C1E0C093DB02882399F1D091B5
:1015E000B8001091BA008091BC008A7B8093BC0047
:1015F00060E084E10E94DB0360E085E10E94DB03A0
:1016000010922503C09327031092260361E084E122
:101610000E94DB0361E085E10E94DB038091B90059
:101620008E7F8093B9008091B9008D7F8093B9003F
:1016300088E48093B80085E48093BC001093BA00DE
:10164000D093B800DF91CF911F9108951F920F9210
:101650000FB60F9211240BB60F922F933F934F9317
:101660005F936F937F938F939F93AF93BF93EF930A
:10167000FF938091960390919703A0919803B09166
:101680009903892B8A2B8B2BE1F190918503E091B3
:101690008603F09187038081892780838091960358
:1016A00090919703A0919803B09199031816190689
:1016B0001A061B069CF48091960390919703A091C3
:1016C0009803B09199030197A109B10980939603FA
:1016D00090939703A0939803B0939903FF91EF9190
:1016E000BF91AF919F918F917F916F915F914F913A
:1016F0003F912F910F900BBE0F900FBE0F901F9038
:101700001895809100020E940D04E8CF1F920F925D
:101710000FB60F9211240BB60F922F933F934F9356
:101720005F936F937F938F939F93AF93BF93EF9349
:10173000FF9382EA93E00E948802FF91EF91BF91AC
:10174000AF919F918F917F916F915F914F913F9159
:101750002F910F900BBE0F900FBE0F901F901895FA
:101760001F920F920FB60F9211240BB60F922F9368
:101770008F939F93EF93FF93E091B203F091B303A4
:101780008081E091B803F091B90382FD1DC0908182
:101790008091BB038F5F8F732091BC03821741F050
:1017A000E091BB03F0E0EE55FC4F958F8093BB03B7
:1017B000FF91EF919F918F912F910F900BBE0F9002
:1017C0000FBE0F901F9018958081F2CF1F920F923D
:1017D0000FB60F9211242F933F938F939F93AF9344
:1017E000BF9380917E0390917F03A0918003B0917D
:1017F000810330914B0323E0230F2D3758F50196D9
:10180000A11DB11D20934B0380937E0390937F0312
:10181000A0938003B093810380914C0390914D037A
:10182000A0914E03B0914F030196A11DB11D80936D
:101830004C0390934D03A0934E03B0934F03BF917D
:10184000AF919F918F913F912F910F900FBE0F906D
:101850001F90189526E8230F0296A11DB11DD2CF27
:101860001F920F920FB60F9211240BB60F922F9367
:101870003F934F935F936F937F938F939F93AF9318
:10188000BF93EF93FF938091B900887F803609F46E
:101890004DC008F040C0883209F4A7C028F5803157
:1018A00009F49BC0C8F4882309F4F7C0883009F410
:1018B00094C0FF91EF91BF91AF919F918F917F91D4
:1018C0006F915F914F913F912F910F900BBE0F90B1
:1018D0000FBE0F901F901895883109F486C0803292
:1018E00041F78093240314C0803409F49BC040F472
:1018F0008033B9F38833E9F68093240385ECAEC0D6
:10190000803509F483C0883509F494C0883489F699
:101910000E94B10ACECF883909F48AC038F58837D9
:1019200029F050F4883611F0803719F683E080935F
:1019300025031092230355C0883809F479C08039F3
:1019400019F0803809F0B5CF80912303803208F078
:101950006FC0E091230381E08E0F80932303809179
:10196000BB00F0E0ED5FFC4F80833BC0803B39F073
:10197000D0F4803A09F477C0883A09F09ACF84E02D
:10198000809325031092020310920103F0E0E0E03F
:1019900019958091010381110FC081E080930103AB
:1019A0001092E10209C0803C09F4A8CF883C09F4F8
:1019B000A5CF883B09F07DCFE091020381E08E0F37
:1019C00080930203F0E0EF51FD4F80818093BB00D4
:1019D000909102038091010329C080914A03809372
:1019E000BB0085EC8093BC0064CF9091490380914B
:1019F0004803981758F5E091490381E08E0F8093D2
:101A00004903F0E0E85DFC4F8081E9CFE0914903B4
:101A100081E08E0F809349038091BB00F0E0E85D88
:101A2000FC4F808390914903809148039817C8F236
:101A300085E8D8CFE091490381E08E0F8093490378
:101A40008091BB00F0E0E85DFC4F8083809127032C
:101A500081115ECF81E08093260384EA8093BC00ED
:101A60001092250326CF85EC8093BC0010922503AD
:101A700080912303803230F4E0912303F0E0ED5FA6
:101A8000FC4F10826091230370E083E093E0F0E06C
:101A9000E0E01995109223030CCF1092240338CF65
:101AA0001F920F920FB60F9211240BB60F922F9325
:101AB0003F938F939F93EF93FF938EB520915003A5
:101AC0003091510324303105CCF4E0915003F09172
:101AD0005103E658FC4F808380915003909151034D
:101AE000039719F481E080937D03809150039091D6
:101AF00051030196909351038093500380915203B8
:101B0000909153030D97B4F4E0915203F091530375
:101B1000EB5AFC4F80818EBD8D3019F481E08093AB
:101B20005403809152039091530301969093530371
:101B300080935203FF91EF919F918F913F912F914D
:101B40000F900BBE0F900FBE0F901F901895109224
:101B5000A5031092A40388EE93E0A0E0B0E0809388
:101B6000A6039093A703A093A803B093A9038EE1C3
:101B700092E09093A3038093A20385EC90E090936E
:101B8000AF038093AE0384EC90E09093B103809315
:101B9000B00380EC90E09093B3038093B20381ECA8
:101BA00090E09093B5038093B40382EC90E090931F
:101BB000B7038093B60386EC90E09093B9038093CB
:101BC000B8031092BB031092BC031092BD03109295
:101BD000BE031092BD041092BC048AE392E090937D
:101BE000BB048093BA0487E08093BE048FEF809398
:101BF000BF0486E08093C00482E08093C10483E048
:101C00008093C20484E08093C30485E08093C4047D
:101C10001092C5041092C6041092C7041092C80412
:101C20001092C90481E00E94730810924D04109232
:101C30005104109250041092520480E392E0909369
:101C40004C0480934B04E7E6F4E010821482138284
:101C50001582369684E0E33AF807B9F784E092E01B
:101C60009093AE048093AD0481E092E09093B00431
:101C70008093AF0484E08093B10483E08093B20446
:101C800088E092E09093AC048093AB048AE090E00B
:101C90009093B4048093B30484EF91E09093B604DE
:101CA0008093B5041092B9041092B8041092A7045E
:101CB0001092A8041092A9041092AA041092B704DA
:101CC00085E494E00E946E0A8FE394E00C946E0A1F
:101CD000CF93DF93CDB7DEB766970FB6F894DEBF2C
:101CE0000FBECDBF789484B5826084BD84B5816019
:101CF00084BD85B5826085BD85B5816085BD8091D7
:101D00006E00816080936E0010928100809181004E
:101D10008260809381008091810081608093810046
:101D2000809180008160809380008091B100846008
:101D30008093B1008091B00081608093B000809169
:101D400091008260809391008091910081608093E6
:101D50009100809190008160809390008091A1001B
:101D600082608093A1008091A10081608093A10096
:101D70008091A00081608093A00080912101826009
:101D800080932101809121018160809321018091C4
:101D9000200181608093200180917A00846080938B
:101DA0007A0080917A00826080937A0080917A0034
:101DB000816080937A0080917A00806880937A00B5
:101DC0001092C100E091B203F091B30382E08083EE
:101DD000E091AE03F091AF031082E091B003F09177
:101DE000B1038FEC80831092BA03E091B603F091B7
:101DF000B70386E08083E091B403F091B50380815E
:101E000080618083E091B403F091B50380818860A4
:101E10008083E091B403F091B50380818068808372
:101E2000E091B403F091B50380818F7D808385E4D8
:101E300092E00E94D6090E94370961E082E20E9486
:101E4000520462E085E30E94520460E083E30E9452
:101E5000520461E082E30E94520460E084E30E9445
:101E600052048CB580648CBD8CB580688CBD84E0D8
:101E70000E9473080E946B0880E00E94140960E5CC
:101E800072E08AEB94E00E94E5096091780370911A
:101E900079036F3F710509F0A1C068ED72E08AEB2C
:101EA00094E00E94E5091092770310927603109255
:101EB00075031092740361E088E00E94520461E0AF
:101EC00089E00E9452040E94BB07412C512C320130
:101ED000439488248A94982C80917D038823F1F080
:101EE00080917A03082E000C990BC0979093790388
:101EF0008093780380917B03082E000C990BC09788
:101F0000909377038093760380917C03082E000CD6
:101F1000990BC09790937503809374038091780315
:101F2000909179030E94B209809176039091770392
:101F30000E94B20980917403909175030E94B209C6
:101F40000E94BB070E946B0860E572E08AEB94E098
:101F50000E94E50960917803709179036F3F7105E4
:101F600009F041C068ED72E08AEB94E00E94E50957
:101F70008091760390917703019701F51092730396
:101F8000109272031092650310926403109267031B
:101F900010926603109269031092680310926B030B
:101FA00010926A0310926D0310926C0310926F03EB
:101FB00010926E031092710310927003809174035B
:101FC000909175030197A1F483E00E94140967E5DD
:101FD00072E08AEB94E00E94E509A8C18AEB94E0E4
:101FE0000E94CC0960CF8AEB94E00E94CC09C0CF5C
:101FF00083E00E9414096FE572E08AEB94E00E948E
:10200000E50981E08093B7048FB7F89440917E038F
:1020100050917F0360918003709181038FBF809105
:10202000A7049091A804A091A904B091AA04481B08
:10203000590B6A0B7B0B8091B3049091B404B0E010
:10204000A0E084179507A607B70708F0D1C110E0F4
:102050008091B104181760F4E091AD04F091AE04E2
:10206000E10FF11D62E080810E9452041F5FF0CFFA
:10207000312C8091B204381608F061C0E32CF12CA9
:10208000E091AF04F091B004EE0DFF1D61E080819E
:102090000E945204E091AF04F091B004EE0DFF1DD8
:1020A00060E080810E94DB03D301C201032C04C0E5
:1020B000880F991FAA1FBB1F0A94D2F75C016C01FD
:1020C000C094D094212C8091B104281608F5022DDB
:1020D00010E0E091AD04F091AE04E00FF11F8081BB
:1020E0000E94AF030C5F1F4F000F111FF801E55B4B
:1020F000FB4F892B41F4808191818A299B2991830F
:1021000080832394E0CF808191818C219D21F7CF22
:10211000E091AF04F091B004EE0DFF1D61E080810D
:102120000E94DB038091AF049091B004E80EF91E89
:1021300060E0F70180810E94520433949ACF0BE44F
:1021400014E07801F701878D90A1892B21F4148E7A
:10215000968E858E11A2F6E0EF0EF11C27E8E216AE
:1021600024E0F20679F7B12C8091B104B81608F09A
:1021700053C0A12CCB2CD12CCC0CDD1CC6018D5A0C
:102180009B4F6C012091B204A21608F043C0F601E7
:10219000608171810A2C02C0769567950A94E2F7F6
:1021A000B29E900111242A0D311DEBE4F4E080E091
:1021B000458D568D2417350709F4E0C28F5F36969A
:1021C0008A30B1F760FF24C0EBE4F4E090E080E0F7
:1021D000448D411118C0E091AB04F091AC04E20FC2
:1021E000F31F408156E0589FF001599FF00D1124D4
:1021F000E55BFB4F448F368F258F10A2178E61E071
:102200000E949B0105C0019636968A30910501F720
:10221000A394B8CFB394A8CF80E0F80191A1911115
:10222000892F0A5F1F4FE016F106B9F79FB7F894A0
:1022300040917E0350917F036091800370918103F0
:102240009FBF4093A7045093A8046093A904709380
:10225000AA04882309F4CCC080916C04882309F473
:10226000C7C020916A0430916B042130310509F018
:10227000BFC0809167048111BEC082E00E94140932
:1022800066E772E08AEB94E00E94E50985E494E059
:102290000E94380280916103882311F183E00E943B
:1022A00014096EE772E08AEB94E00E94E50910924F
:1022B000610384E690E00E948E0468EC70E080E0A8
:1022C00090E00E94340782E20E940D0464E670E010
:1022D00080E090E00E943407109273031092720322
:1022E00081E00E9414096DE872E08AEB94E00E949C
:1022F000E50980917803909179038130910509F087
:1023000087C18091720390917303019709F07DC199
:10231000809164039091650364E972E0009709F489
:1023200058CE67E972E0019709F453CE6AE070E095
:1023300080E090E00E9434076BE972E082EA93E06B
:102340000E94E50980E280935503809356038093B1
:10235000570380917203805D80935803CE010B96E2
:102360000E946E0A04E613E0F801619171918F01F9
:10237000CE0101960E94850A4D815E8169817A8134
:10238000CE010B960E94170ACE0101960E94E70922
:10239000F3E002371F0741F70F8518890115110572
:1023A00009F0DBC1109259038DE08093600388E54A
:1023B00093E00E94D60980915403882351F0109233
:1023C000530310925203109254031092510310922F
:1023D00050030E94370981EB92E00E94D6090E94C7
:1023E0003709CE010B960E94E7090E94170374CDAE
:1023F0001092B70442CF833209F0F8C08091720383
:10240000909173038130910519F583E00E941409BE
:1024100067E672E08AEB94E00E94E50988EE93E0BB
:102420000E948E0468EC70E080E090E00E94340727
:1024300082E20E940D0464E670E080E090E00E9479
:10244000340764E472E085E494E00E947B0A15CFCF
:10245000892BB9F73093730320937203809178032B
:10246000909179038130910511F580914904909103
:102470004A040197C1F48091450490914604009765
:1024800071F00E94C813709363036093620362301B
:10249000710548F47093650360936403D2CF60E0E4
:1024A00070E0CB01F0CF81E080936103CACF82302E
:1024B0009105F1F48091490490914A04019799F7AC
:1024C0008091450490914604009771F00E94C813D2
:1024D00070936303609362036630710520F7709315
:1024E000670360936603ADCF60E070E0CB01F0CF8F
:1024F00083309105F1F48091490490914A04019749
:1025000091F68091450490914604009771F00E94E5
:10251000C81370936303609362036430710518F607
:1025200070936903609368038CCF60E070E0CB0127
:10253000F0CF049709F085CF0091490410914A0427
:102540000115110561F5198264E772E0CE0101966B
:102550000E94EF13FF24F39401E010E00097C1F113
:10256000FC018081082E000C990BC09790936303A7
:102570008093620364E772E090E080E00E94EF13D2
:10258000209162033091630324303105F0F4220F6F
:10259000331FF901E659FC4F11830083DFCF093067
:1025A000110510F009E010E06091450470914604B7
:1025B000A801CE0101960E94C316E1E0F0E0EC0F05
:1025C000FD1FE00FF11F1082BFCFF0926103C6CF55
:1025D000E4E6F3E086819781019711F01782168275
:1025E000329623E0EC36F207A9F72BCF893309F4B2
:1025F00028CF89831A8241E050E0BE016F5F7F4F90
:1026000085E494E00E94170A38CE68ED72E0E1CCD0
:1026100082309105D1F480917203909173030197F8
:10262000A1F70091660310916703F12CE12CE016ED
:10263000F1060CF07BCE64E772E08AEB94E00E9436
:10264000E5093FEFE31AF30AF2CF83309105B9F4BD
:1026500080917203909173030197B9F660916803BA
:1026600070916903CE0101960E94850ACE01019600
:102670000E943802CE0101960E94E70957CE0497C6
:1026800009F054CE8091720390917303019709F081
:10269000BCCFAAE6B3E090E080E010E000E02D912E
:1026A0003D912130310569F4F801EE0FFF1F21E063
:1026B00030E02C0F3D1FE20FF31F918380830F5FEB
:1026C0001F4F01968430910551F7CE0101966C01A0
:1026D000F12CE12CE016F10609F428CEF601619107
:1026E00071916F01CE0141960E94850A1C861B865E
:1026F0001E861D86188A1F8669897A89611571056B
:1027000031F04D895E89CE010B960E94430A41E06B
:1027100050E065E672E0CE010B960E94170A811127
:102720000CC08B859C85009711F00E9449151C8672
:102730001B86188A1F861E861D86CE010B960E9458
:102740003802CE010B960E94E709CE0141960E9405
:10275000E709FFEFEF1AFF0ABDCF0730110510F0B0
:1027600007E010E06B857C85A80189E593E00E9475
:10277000C316F801E75AFC4F108216CE617040CDA7
:102780008FE394E00E94E70985E494E00C94E70964
:102790001F93FC0199278827BC01E89411911032FE
:1027A000E9F3193010F01E30C8F31B3251F01D321E
:1027B00049F4689406C00E942514610F711D811DA3
:1027C000911D119110531A30B0F33EF490958095FD
:1027D000709561957F4F8F4F9F4F1F91089542EDE8
:1027E00054E00C94F313FA01A191B081009719F40D
:1027F0001097E1F0CD01DC01CD010D90002011F426
:10280000C00113C0FB012191222319F02015D9F733
:10281000F3CFFB012191201519F41E92119606C0E9
:102820002223C1F70D900020A1F7D001FA01A19356
:10283000B0830895BB274A3031F4992322F4BDE2D6
:10284000909581959F4F0C943B14592F482F372F0B
:10285000262F660F771F881F991F660F771F881F07
:10286000991F620F731F841F951F660F771F881FA4
:10287000991F0895BB27FB015527AA27880F991F89
:10288000AA1FA41710F0A41B83955051B9F7A05D9F
:10289000AA3308F0A95DA193009779F7B111B1931C
:1028A0001192CB010C945414DC01FC01672F71913F
:1028B0007723E1F7329704C07C916D937083629126
:1028C000AE17BF07C8F30895A1E21A2EAA1BBB1BBF
:1028D000FD010DC0AA1FBB1FEE1FFF1FA217B307EC
:1028E000E407F50720F0A21BB30BE40BF50B661F02
:1028F000771F881F991F1A9469F7609570958095C6
:1029000090959B01AC01BD01CF010895052E97FB69
:102910001EF400940E949D1457FD07D00E94641479
:1029200007FC03D04EF40C949D14509540953095BF
:1029300021953F4F4F4F5F4F08959095809570952B
:1029400061957F4F8F4F9F4F0895EE0FFF1F881F98
:102950008BBF0790F691E02D19940F931F93CF939F
:10296000DF938230910510F482E090E0E091D6048C
:10297000F091D70430E020E0B0E0A0E0309799F487
:102980002115310509F44AC0281B390B24303105C3
:10299000D8F58A819B816115710589F1FB019383CB
:1029A0008283FE0111C04081518102811381481749
:1029B0005907E0F04817590799F4109761F01296FB
:1029C0000C93129713961C933296CF01DF91CF91FF
:1029D0001F910F9108950093D6041093D704F4CF5C
:1029E0002115310551F04217530738F0A901DB01D9
:1029F0009A01BD01DF01F801C1CFEF01F9CF90933A
:102A0000D7048093D604CDCFFE01E20FF31F81934C
:102A100091932250310939832883D7CF2091D40450
:102A20003091D504232B41F42091160230911702E6
:102A30003093D5042093D4042091140230911502D0
:102A40002115310541F42DB73EB740911802509140
:102A50001902241B350BE091D404F091D504E21740
:102A6000F307A0F42E1B3F0B2817390778F0AC01B1
:102A70004E5F5F4F2417350748F04E0F5F1F50938E
:102A8000D5044093D404819391939FCFF0E0E0E08C
:102A90009CCFCF93DF930097E9F0FC01329713822C
:102AA0001282A091D604B091D704ED0130E020E06D
:102AB0001097A1F420813181820F931F2091D404BB
:102AC0003091D5042817390709F061C0F093D50477
:102AD000E093D404DF91CF910895EA01CE17DF0788
:102AE000E8F54A815B819E0141155105B1F7E90185
:102AF000FB83EA8349915991C40FD51FEC17FD0759
:102B000061F4808191810296840F951FE901998378
:102B10008883828193819B838A83F0E0E0E0129630
:102B20008D919C9113970097B9F52D913C91119738
:102B3000CD010296820F931F2091D4043091D504C9
:102B40002817390739F6309751F51092D7041092AB
:102B5000D604B093D504A093D404BCCFD383C2834E
:102B600040815181840F951FC817D90761F44E5FCA
:102B70005F4F88819981480F591F518340838A8113
:102B80009B81938382832115310509F0B0CFF093A7
:102B9000D704E093D6049ECFFD01DC01C0CF1382A1
:102BA0001282D7CF4F925F926F927F928F929F92B5
:102BB000AF92BF92CF92DF92EF92FF920F931F934B
:102BC000CF93DF938C01009799F4CB01DF91CF91E4
:102BD0001F910F91FF90EF90DF90CF90BF90AF903B
:102BE0009F908F907F906F905F904F900C94AD145A
:102BF000FC01E60FF71F9C0122503109E217F30791
:102C000008F4AEC0D901CD91DC911197C617D70752
:102C100020F1C530D10578F0CE01049786179707CB
:102C200050F0C61BD70B2297C193D1936D937C9321
:102C3000CF010E944915C801DF91CF911F910F91DB
:102C4000FF90EF90DF90CF90BF90AF909F908F90CC
:102C50007F906F905F904F9008955B01AC1ABD0A12
:102C60004C018C0E9D1EA091D604B091D704512C1E
:102C7000412CF12CE12C109731F58091D4049091E6
:102C8000D5048815990509F05CC04616570608F06A
:102C900058C08091140290911502009741F48DB7AD
:102CA0009EB74091180250911902841B950BE817AA
:102CB000F90708F055C0F093D504E093D404F90166
:102CC00071836083B8CF8D919C91119712966C900F
:102CD000129713967C901397A815B90559F56C01B6
:102CE00042E0C40ED11CCA14DB0420F1AC014A1925
:102CF0005B09DA011296159780F062827382518324
:102D00004083D9016D937C93E114F10471F0D701F4
:102D10001396FC93EE9312978ECF22968C0F9D1FE5
:102D2000F90191838083F301EFCFF093D704E0930F
:102D3000D60481CF4816590608F42C017D01D30131
:102D40009ACFCB010E94AD147C01009749F0AE01EF
:102D5000B8010E94B316C8010E94491587016BCFC4
:102D600010E000E068CFFB01DC0102C001900D9291
:102D700041505040D8F70895FB01DC0101900D92BD
:102D80000020E1F70895FB01DC014150504048F07C
:102D900001900D920020C9F701C01D924150504092
:102DA000E0F7089511E0C4E4D1E000E006C0802F10
:102DB000FE010E94A5142196011DC534D10780E0B3
:082DC0000807A9F7F894FFCF02
:102DC800FF181716191A1B1C3132333435363738A9
:102DD800392A30230000D804800000000000AA022D
:102DE8000B024102F7027202500264020000000066
:102DF8000B070904D8030000000022090B02B807DA
:102E0800B7070D0A002D3E20536C6176652D310001
:102E18004D6F64653A20005B50617573655D0020F5
:102E280020202020202000566F746564206265668B
:102E38006F7265002A00496E7075743A2000496EF9
:102E480076616C696420496E7075742100566F74E0
:102E5800653A20004E6F005965730053656E642013
:102E68006461746120746F204D61737465723A20D7
:102E7800002D2D2D2D2D2D2D2D2D2D2D2D2D2D2DA7
:102E88002D2D2D2D2D2D2D2D2D2D2D2D2D2D2D2D6A
:0A2E98002D2D2D2D2D2D2D2D2D009B
:00000001FF
